:100000000C94160F0C943E0F0C943E0F0C943E0F64
:100010000C943E0F0C943E0F0C943E0F0C943E0F2C
:100020000C943E0F0C943E0F0C943B1E0C94411FFD
:100030000C943E0F0C943E0F0C943E0F0C943E0F0C
:100040000C943E0F0C943E0F0C943E0F0C943E0FFC
:100050000C943E0F0C943E0F0C943E0F0C944611E2
:100060000C943E0F0C943E0F0C943E0F0C943E0FDC
:100070000C943E0F0C943E0F0C943E0F0C943E0FCC
:100080000C9490110C943E0F0C943E0F0C943E0F68
:100090000C943E0F0C943E0F0C943E0F0C943E0FAC
:1000A0000C943E0F0C943E0F0C943E0FB426B426D5
:1000B000B426B426B426B426C126C126C126C1263C
:1000C000C126C126B426B426B426B426B426C12639
:1000D000C126B426F22DF22DF22DF62D042E042E7B
:1000E000042E082E112E112E192E192E252EAB128C
:1000F000AB12AB12AE12AE12AE12B512B512B512F1
:10010000B512B512B512AB12AB12AB12AB12AB12E9
:10011000B512B512AB1260166B166B166B165C1629
:100120006B165816551652164F164C166B16491666
:100130006B166B166B1663163117311731173117A3
:100140003D173D173D173D174F174F1756175617B9
:100150006B176B175D175D170307EE5455AA933B9A
:100160000307AE5C55AA2A572903074AF7AA924B00
:10017000030756AE2A55954D01030752A5AA5255BD
:10018000A94E010307AE5C2A5595AB140307AE5C7C
:100190002A5595AB140307EE54AFAA72DD030798F6
:1001A0003A2575030307562E954AE59402D5F08D3E
:1001B00014A1C881CFD9F1AF2000060798964E3A16
:1001C000E5E45C0607A8B2CA49A76C5C040798B2CC
:1001D000D2450624174A67B75B66BB4DC7ABA3730E
:1001E000DBED76BBD2D111EA08FFFFFFFF4F7D2A7E
:1001F0001D9792CA39F7FFA94F6DB7DB74942BE7AF
:100200009C723A1DEFCA39A71C5FCE39B9FDFFFFBA
:10021000FF57BD725249ADA4B2FFFFFFFFA73EB525
:100220004D4769974AAA743ABDDDDAA592945249BE
:1002300065ED76BBDDA6A472CE39E0060A000000AB
:10024000020017040A0000000200E0060A00008015
:10025000B801080000000200F700080000000200DA
:100260009300080000806E000A00000002004100B8
:10027000060000000200F7000700008037000A00B7
:1002800000000200A5000B0000000600100007009F
:1002900000000300DC000F0000000C007B000900E0
:1002A000000007006200100000000800AF00050019
:1002B000000008000B0208000000020057000D00BB
:1002C000000005001C000D000000080037000F00B2
:1002D00000000200A5000B0000000600100007004F
:1002E00000000300DC000F0000000C007B00090090
:1002F000000007006200100000000800AF000500C9
:100300000000080041000800000002002C000D0061
:10031000000005001C000D00000008001000060091
:100320000080B8010A00000002000601060000007B
:100330000200DC0307000080E00628000000050042
:10034000170428000000050027052800000005000C
:10035000200628000000050000802517D09D4E676C
:10036000B7DBED76BB4EA7D3E990A6A4924A2AA9A3
:10037000B0B4734A2AB9DD6ED3A17DBBDDA663CDCF
:100380006E97CA714B65476F3A9DCE6EB74B2595F8
:1003900054CE39E79C924A2A39B600370FD325ABA1
:1003A0004A952C444955954A4525552525952A5564
:1003B000952A45A5B4520A85E9925555952C0449CC
:1003C000999454525552524955C99B4AAA544E3198
:1003D000A5D3E974D05B3A9D4E073D01600FB6513D
:1003E0003A259D934ED9E86C74524925D5363A2664
:1003F0001BA35452499FDE32D9189D734E31A597E5
:1004000054363A8C6597D4721B918D71BB5DAACB23
:10041000E5B24B25A9E536221BE376BBFD56978B4B
:10042000CBC6A8A492336D95C39092CE49E7A4722F
:100430004E49A76C645239A7C8A5724E9129E99C10
:10044000944A2AE79454CE2932A99C53329D4E47B0
:10045000EF9C54522AA9A492DB88B24BA5A4924ADD
:10046000CA6D645239A7902895738A5C49E7A454F1
:1004700052492595DC462695738A2CBD555659253B
:100480009553729B050000CC01EE0175000000BB86
:100490000072013E0000000700EE017D0000003EFA
:1004A000004B02030200002E00EE011302000027A1
:1004B000004B027D000000AB00EE012E0000001F8B
:1004C000004B02750000003E00E4020B0200002E0B
:1004D000004B020B0200001F00E40275000000BB8D
:1004E000004B02360000000F00E4028400000036DA
:1004F0000070030B0200002700B801FB010000366A
:10050000004B0275000000B300B801270000002E68
:10051000004B02750000004600E402E80300800979
:100520000FD8D2FD4594764E8EA8ED564925152953
:10053000090F587B55B6D2CEC930A5A4924A6E6732
:1005400005090F643A75297969554AE5F3312AA9F5
:100550006474E9F476BB05090F5C3A776D2FAD4AF8
:10056000A9542A3DE5763BDB76ABEC7609180FE81B
:10057000729D9A301DD3AE3ECA4AA9727145156765
:10058000CFAC64E5B7DB09D3B95EA552BD4D563299
:100590005DDB55AFD2B5DD4E964EC706180F64250C
:1005A0009592CA29A954E72EE99C3A75EE72B72BA9
:1005B00059DD755D529DAEAC92CE4957EBFC76ABE2
:1005C000A4D2DBEDAE92CE39279574CE29E79C7389
:1005D000CE39E7DC769B8E16180F7436BB544E2A44
:1005E000B95572BBDD6EB7DBAD924A6EB79F72CE66
:1005F000395911669554D239E79C93CA39A9EC52FE
:10060000D9ED52D9ED5249A54A39E79C734A6ED3C8
:10061000180F68B3DB9D53AA94B29773CE29554A3D
:10062000D54EB9BB3AA54AA9724A2A79C97DC4E90F
:10063000A592CE29E99C735249259593CE39E59C24
:1006400054525D4E2AE72AB9DD4607180FE8729D1D
:100650009A301DD3AE3ECA4AA97271451567CFAC18
:1006600064E5B7DB09D3B95EA552BD4D56325DDBFB
:1006700055AFD2B5DD4E964EC706180F642595725C
:100680004EB9EDAAB697ACDCAA739DEBF4577D7515
:10069000574CE988B24A3A59EBFC76AB747ABBDD29
:1006A000266BD739A9A4DD29A99C73CE2E95CC6ED3
:1006B000D3D102180F58D3C9EDD2B94EE7B29F4A31
:1006C000A5AA52954D4795FAD447B61D41DBAD9288
:1006D0004A3AA99C734E3A77E9DCE59CEA9574CADC
:1006E00039B75576A9643A3A180FE8D3E95C7A9D90
:1006F000AE74AE73E9645CB9CEC5970E65E9AC9291
:10070000955476E9DC2595DC279554CE39E7B697E4
:10071000AB643A1D2D0817CA27A39B2DA26C08CDE8
:100720004614DB74C97C0E081798F291CD970DBD65
:10073000D9F826CB47060807CA27A39B2DA26C161B
:10074000080798F291CD978D0C2517A0A574769B7C
:10075000CEA6B3DB74369D55329D4D56B065D0297B
:100760002517A0A574769BCEA6B3DB74369DDDA6B7
:10077000B39DAB1096CE6ED3D974769BCEA6B3DB69
:10078000743A681D2517A0A5743A14E6630E69E94A
:10079000EC369D4D67B7E96C3ABB4DA78386824E18
:1007A000012517E0C26CE09E002517A0AB743AB497
:1007B000259554909172CE3925951C8BDBEDAE9228
:1007C00049E75CD0507AFBA97FBBFDD4524925553F
:1007D0006D97DBA592DBED3634022517A0AB743A9A
:1007E000B4259554909172DB6C3AD52BE7E418DB75
:1007F0006E77954C3AE78286D2DB4FFDDBEDA7960C
:100800004A2AA96ABBDC2E95DC6EB7A1112517E038
:10081000F3747A9DCEA7D3EB743E9D5EA783490106
:10082000251730954EAFD3F9747A9DCEA7D3EB74CC
:10083000F0653ABD4EE7D3E9753A9F4EAFD3C1A4F8
:10084000251730954EAFD3F9747A9DCEA7D3EB74AC
:10085000E0BB002517A06655BB4A479F5E3A258737
:10086000CAB6DBED36BAB45452F53638082517A0AF
:100870006655D755BB52524927D5E9A55372A86C86
:10088000BBDD6EA34B4B25556F838300251710945A
:10089000CEA7D3EB743E9D5EA7F3E9F43A1D7C9995
:1008A0004EAFD39DEC5C7A9DCEA7D3EB74305F3E08
:1008B000EC0125171094CEA7D3EB743E9D5EA7F3F1
:1008C000E9F43A1D7C994EAFD3F9747A5DC97C3A4C
:1008D000BD4E07830225171094CEA7D3EB743E9D1F
:1008E0005EA7F3E9F4706C3E18341FF6002517403C
:1008F0000E65836A012517D09A0E4DE920B3D457AF
:10090000B9F9E20F6DB9569F8E2E9DDD8EF7747A80
:10091000BBDD2AA9A473B5AB5D2925955DF5AA9425
:10092000924A2AA9E4769B0E9D2517D09A0E4DE98E
:1009300020B3D457B95576575B259574AA14CA725B
:10094000AD3E1D5D3ABB1DEFE9F476BB555249E75C
:100950006A57BB524A2ABBEA552925955452C9ED1C
:10096000361D3A012517A0A9743AF8329D5EA7F307
:10097000E9F43A5DD94AA68333F349251710954E19
:10098000E7D3E9753A9F4EAFD3F9747A9D0EBE4C0A
:10099000A7D7E97C3ABD4EE7D3E988B2C1982517BD
:1009A00010954EE7D3E9753A9F4EAFD3F9743AD814
:1009B000381F0C9A4F022517C02A6583310125176D
:1009C000D0944E67B7DB753A1DDA82A37E65955DDC
:1009D000AFD3E975F80A4D69A5CA5DE84C87BF74C5
:1009E0003ABDDD6E95DDAE77B5AB9D5452DDEA5F65
:1009F000F5AA94924A3AE7A4924A2AB95452C96D88
:100A0000B42517D0944E67D3E97C3A1DDA82A37ED1
:100A1000A55AFDBFBA5D29554A49E7E4580A4D6910
:100A2000A5CA5DE84C87BF743ABDDD6E95DDAE7733
:100A3000B5AB9D5452DDEA5FF5AA94924A3AE7A419
:100A4000924A2AB95452C96DB4251760A9743E9DC3
:100A50004E074FA6D3E9753ABD4E57B2230CBE4C94
:100A600003251730954EA7D7E9F43A9D5EA7D3F931
:100A7000743A9D4FA7D3C193E9747A9D4EAFD3E9E1
:100A800018B34199251730954EA7D7E9F43A9D5EE2
:100A9000A7D3F97490733EC2E0CB342517402A6582
:100AA0008332012517D0944E67B7DB753A9D0E4D02
:100AB000E9743A38E957A7945DA7D7E9747ADA74EC
:100AC000F85BB5BAED3A9D4EA7D3D9ED763CA6D3E7
:100AD000E9F476BB5D6FB7DBA573CED5AE76BDBA54
:100AE000D5E5B6DBED76BB4DA7A3072517D0944E11
:100AF00067D3E97C3A9D0E4DE9743A38E957BFFA5D
:100B00007FD5ABDB9552A55429E56C6CE9F0B76A4B
:100B100075DB753A9D4EA7B3DBED784CA7D3E9EDB5
:100B200076BBDE6EB74BE79CAB5DED7A75ABCB6DFC
:100B3000B7DBED769B4E470F251760A3747A9D4E69
:100B4000A7832FD3E9743A9F4EA72BD9C9742A954E
:100B50000BDE04251728D3E97C3A9D4EE7D3E974D0
:100B60003A9F4EA7D3EB743A1D7C994EA7D3F974E4
:100B70003A9DCEA72B39DC09251728D3E97C3A9D6D
:100B80004EE7D3E9743A9F4EA7839BF311E6833770
:100B9000012517C02565833B012517D0954EA7D3A6
:100BA000A12F1D44F5E7D6DB753A9D5EA7A30D6F17
:100BB0005B75DBED3A9DCE6EB74B25951C81E974D4
:100BC0003ABDDD6EB7EBED76BB5D3AE75CED6A579B
:100BD000BB4AA6B7DB6D3A1DDA002517D0954EA7A4
:100BE000D3A12F1D44F557AFFED4A75429554AB5BC
:100BF000FA94AA5D451ADEB6EAB6DB753A9DDD6E5B
:100C0000974A2A3902D3E9747ABBDD6ED7DBED76D9
:100C1000BB74CEB9DAD5AE76954C6FB7DB743AB407
:100C200001251760A5743E9D4EA7D3E974F0643A80
:100C30009D4EA7D395AD643AAE204C2517A8D2E9B6
:100C40007C3A9D4EA7D3EB743A9D4EE7D3E97C3AAC
:100C50009D4EA7D3E9E0C9743A9D4EA7F3E97465A8
:100C60008334012517A8D2E97C3A9D4EA7D3EB74B3
:100C70003A9D4EE7D341D1F9988330012517402999
:100C8000658334012517A0A3743AA829AB6E574990
:100C900065D3E9743A9DDEAED3A12DFDA94F492558
:100CA00095DD6EB7DBED5239E79C1C41E9F476BB6C
:100CB000DD6EB7EBAC92CA6EB7DBED3AE99C73B56B
:100CC000AB5DED6A974EA7D3E97468022517A0A320
:100CD000743AA829ABEEBAEA55AB52AA942AA5CA2F
:100CE000DDEA56DFEA92E9D096FED4A7A492CA6E56
:100CF000B7DBED76A99C734E8EA0747ABBDD6EB720
:100D0000DB75564965B7DBED769D74CEB9DAD5AEA5
:100D100076B54BA7D3E9743A3401251720A7743A66
:100D20009DCEA7D3E9743A9DCEA7D3E9E0C7A883A7
:100D300032012517A8D2E9743A9F4EA7D3E9743A35
:100D40009F4EA7D3E9743A9DCEA7D3E9743A9DCEBE
:100D5000A7D3E9E0CDA04D2517A8D2E9743A9F4E5C
:100D6000A7D3E9743A9F4EA7D3213EF832E6E04C70
:100D70002517C02B056D022517D0954EA7D3E97412
:100D80003A1D5D76BBDD6EB7EB60A26FB5DEAED30C
:100D9000E9743A9D4E4F9B4EA7D331E63AE79C73D8
:100DA000CE492595545239259573CA3985AB743A85
:100DB0009D4EA7D3E9F476BBDD6EB7DBED76BBDDE8
:100DC0008E652517D0954EA7D3E9743A1D5D76BB85
:100DD000DD6EB7EB60A26FB5EBFF53AA942AA54A6C
:100DE000A952AA94AA5D7ADA743A9D8E31D739E76E
:100DF0009C734E2AA9A492CA29A99C53CE295CA50A
:100E0000D3E9743A9D4EA7B7DBED76BBDD6EB7DB59
:100E1000ED762C03251720A7ED369BCE6ED3D97423
:100E2000769BCEA6030D052517D09E4E67B7D9ED4C
:100E3000369BCE6ED3D974769BCEA6435D3ABB4D1E
:100E400067D3D96D3A9B4E07DD032517D09E4E67B9
:100E5000B74156E9EC369D4D67B7E96C3A1D740F02
:100E60002517A0A5743AB8D08DA57484A582E73A59
:100E7000574A955252CD964E2BB95D874D2517A0F6
:100E8000A5743AB8D0AD76CE29E7E4AA5711960AF0
:100E90009EEB5C29554A49355B3AADE4761D360137
:100EA000251760A7743A9D4EA7D3E974769B4EA789
:100EB000D38179022517E8D3E9743A9DDDA6D3E9F9
:100EC000743A9D4EA7D3E9743A9D4EA7D3D96D3A93
:100ED0009D4E07E6092517E8D3E9743A9DDDA6D3B0
:100EE000E9743A9D4E07E20B2517A0A3743A1D9CA6
:100EF000B793DBD1944E274B0DB72D95543234A5C3
:100F0000955C87652517A0A3743A1D9CB793FFA72E
:100F1000A4924A2AA95429D5AB64A9E1B6A5924A5C
:100F200086A6B492EBB00C251720A7743A9D4EA765
:100F3000D3E9743A9D4E07260A251790954EA7D3FC
:100F4000E9743A9D4EA7D3E9743A9D4EA7D3E9744C
:100F50003A9D4EA70313052517C8D3E9743A9D4E51
:100F6000A7D3E9743A9D4E07E60B251760A3ED76EB
:100F70003B94B793E9F8D2E9746C952C3594B6DDBF
:100F80008EB5ED766C03251760A3ED763B94B79391
:100F9000A96F25952AA54AA952AA94FD4A961A4AEC
:100FA000DB6EC7DA763BB601251720A9743A9D4E51
:100FB000A7D3E9743A9D4E07060A251790964EA7C7
:100FC000D3E9743A9D4EA7D3E9743A9D4EA7D3E96D
:100FD000743A9D4EA7030305251790954EA7D3E9B4
:100FE000743A9D4EA7D3E97460BC002517C0C701B1
:100FF000251760A5ED763B94B793E978D3F1259357
:101000004AC16ADBED762C6DB7DBB10C251760A504
:10101000ED763B94B7BB53DF4A2AA95429558A2B56
:1010200099540A56DB6EB76369BBDD8E65251720C0
:10103000A5743A9D4EA7D3954CA7D3E9743A1D14D5
:1010400018EC0B2517C8D3E9743A9D4EA7D3E97461
:101050003A9D4EA7D3E9743A9D4EA7D3954CA7D39A
:10106000E9C040012517C8D3E9743A9D4EA7D3E9DA
:10107000743A9D0E81C1A041BE2517A0B9C053018D
:101080002517D09FDD6EB7EBA0B66F57B1A7D3E998
:101090006895744E3925974A4152E9ED76BBDD6E6D
:1010A000B7DBED76BB1DEB2517D09FDD6EB7EBA050
:1010B000B66F579DEAA5924A9552A554AFA255D254
:1010C00039E5945C2A0549A5B7DBED76BBDD6EB743
:1010D000DBED76AC03251720A7743A9D4EA7D3E924
:1010E0006D25D3E9743AB8311FDC0A251790954E67
:1010F000A7D3E9743A9D4EA7D3E9743A9D4EA7D37E
:10110000E9743A9D4E57721B1828251790954EA7E3
:10111000D3E9743A9D4EA7D3E974F8CB0783E683ED
:101120005B012517A0BF6C20A2002517A0A1EC76BB
:10113000BBDDAE83BABE5D2547573A9D4EC7987357
:10114000CE39A79C534E39A720A1F476BBDD6EB7EC
:10115000DBED76BBDD6EB7631B2517A0A1EC76BB7C
:10116000DDAE83BABE5D75FF5249A54A496557E9B0
:10117000743A1D63CE39E79C724E39E59C8284D265
:10118000DBED76BBDD6EB7DBED76BBDD8E6D251757
:1011900060A1743A9BCEA6B3E96C3A9BCEA6D3A9C4
:1011A0007C30693E58132517D09D4E67D3E96C3AC1
:1011B0009BCEA6B3E96C3A9B4E87AB6C7CE96C3A4C
:1011C0009BCEA6B3E96C3AE81F2517D09D4E87FB4E
:1011D0007C684B67D3D974369D4D67D3415FF96006
:1011E0004D251720C96CA098002517A0A1743A1DA1
:1011F000B6B7DBB1B8545239E79C734A2A1B427325
:10120000CE39A79C73CE29E79C724A2AE714DA925A
:10121000CEB9DAD5AE769DEB5CA73E954AF5FFA731
:101220003EB5545295924B259553524925B7DB6DE7
:10123000E8032517A0A1743A1DB6B7DBB1B84C6717
:10124000D3E96C3A752E5CE69C734E39E79C53CE1D
:1012500039E59454CE29B4259DBDDCA55429D5ABE0
:10126000CE75EA53A954FF7FEA534B255529B9544B
:10127000523925955472BBDD863E251760A1743A1C
:10128000BB4DA7B3E9743A9B4EA7B3E94A762EC883
:10129000331FAC092517D09C4EA7B3E974769B4E3B
:1012A00067D3E974369D4E67D3E9748CD9C8D2E907
:1012B0006C3A9DCEA6D3E94003012517D09C4EA7DA
:1012C000B3E9B09D0F65E974369D4E67D3E974F0BC
:1012D000583E4813251720C96CA098002517A0A1D7
:1012E000743A1DBAB3DBD19754CE39E79C734A2ABE
:1012F000A9E4F84C2AA9A472CA39E79454CE29E784
:101300009C5348DB7EEA53AA94EA55AF7AD5FF9FF7
:10131000FA56B7EA9554CED576A9A492DBA592DB0E
:10132000ED762C022517A0A1743A1DBAB3DBD19734
:101330005C6ED3E96C3A954A353E934A2AA99C7271
:10134000CE39259573CA39E714D2B69FEBDCA55484
:10135000AF7AD5ABFEFFD4B7BA55AFA472AEB64BD9
:101360002595DC2E95DC6EB763112517909FCE6E08
:10137000B7E9743A9B4EA7B3E9743ADBB9542A68CB
:10138000341FA4092517D0944EA7B3E9743ABB4D76
:10139000A7D3D9ED369D4E67D3E974369D4E67D3FA
:1013A000E9A8634CA7038D042517D0944EA7B3E991
:1013B000743ABB4DA7D3613D1FC6D2E9E0C17C9012
:1013C00026251720C9C034012517B0BEDD6EB7DB56
:1013D000753A9D4E87C5ED3A6C2D9592DBED769B67
:1013E0004E87B5743A9DBDDC65B7BBCA5DEE72979A
:1013F00092CA39A7A492E16D9DAC5DE73A57BBDA7A
:101400006EB74B25974A2AA9A492DBED76BB4DA770
:10141000D3E9D0082517B0BEDD6EB7DB753A9D4E17
:1014200087C5ED3A6C2D95BAFF4F7DEA53B7BA9454
:101430002A85B1743A9DBDDC65B7BBCA5DEE729773
:1014400092CA39A7A492E16D9DAC5DE73A57BBDA29
:101450006EB74B25974A2AA9A492DBED76BB4DA720
:10146000D3E9D0082517E0A0ED769B4EA7D3E97409
:10147000369D4EA7D3DB4AA6D3C195F97C9026258D
:10148000176C3A9D4EA7B3E9743A9D4EA7D3E9EC89
:1014900076BB4DA7D3E9743A9B4EA7D3E9743A9D26
:1014A0008E28304D25176C3A9D4EA7B3E9743A9DAE
:1014B0004EA7D3E9743A1D96F341A5F9204D25179F
:1014C00020C9C034012517D09DDD6EB7DBED769DB8
:1014D0004E87CDED3A242D9592EB743A1D7B3A1D43
:1014E0006D3A9DCE5EEEB2DB5DAD6E75B9CB392542
:1014F00095734E492543D73ABDDD6EB7DBED76BB1C
:10150000CD6EB7DBED76BBDD6ED3E9743A740225A0
:1015100017D09DDD6EB7DBED769D4E87CDED3A247D
:101520002D9592BF2AA54AA952AA945C2AA9543A99
:101530001D6D3A9DCE5EEEB2DB5DAD6E75B9CB39F9
:101540002595734E492543D73ABDDD6EB7DBED7661
:10155000BBCD6EB7DBED76BBDD6ED3E9743A7402BA
:10156000251720A1743A9D4EA7D3D9743A9D4EA752
:10157000D3CBCEA5833DF3C1992517743A9D4E6711
:10158000D3E9743A9D4E67D3E9743A9D4EA7D3E9E7
:101590006C3A9D4EA7D3E96C3A1D63209A0025173B
:1015A000743A9D4E67D3E9743A9D4E67D3E9D09F54
:1015B0000F2ACD076702251760C94034012517B0EF
:1015C000BEDD6EB7EB74684E87ABA57272BB4EA7DB
:1015D000D3E974ECE9743A1D63AE734E49259573F3
:1015E0004E49259554CE29E7941C4BE9F576BBDD91
:1015F0006EB7DBED52C9ED76BBDD6EB7DBED76BBCA
:101600001DBB2517B0BEDD6EB7EB74684E87ABA56A
:1016100072F7FF29554A9552A55429554AD5D4E960
:10162000743A1D63AE734E492595734E4925955402
:10163000CE29E7941C4BE9F576BBDD6EB7DBED52A6
:10164000C9ED76BBDD6EB7DBED76BB1DBB25172084
:10165000A5743A9D4EA7D3E9743A9D4E6F2B192479
:101660009A0FCA042517C8D3E9743A9D4EA7D3E947
:10167000743A9D4EA7D3E9743A9D4EA7D3E9743AC4
:101680009D8E38F04C251748D3E9743A9D4EA7D368
:10169000E9743A9D4EA7C3733EA8341F94092517D9
:1016A000A0C9C033012517D09FDD6EB7DB7550D2BE
:1016B000B7BAE4769D4EA7D3E974B4E9743A9D8E27
:1016C000299D73CE39E79C73CE29A9A4726EA99C7B
:1016D0001C59E9ED76BBDD6EB7DBED76BBDD6EB791
:1016E000DBED76BBDD6EC72E2517D09FDD6EB7DB39
:1016F0007550D2B7BAEEFF53AA942AA54AA952AAA6
:1017000076E968D3E9743A1D533AE79C73CE39E71A
:101710009C535249E5DC523939B2D2DBED76BBDD60
:101720006EB7DBED76BBDD6EB7DBED76BBDD8E5DD8
:10173000320FF8D2952C5925D3254BA54A96AE5495
:1017400095AC52952E5975F755BA6495AA56A7D3FC
:10175000E9BEAAAAAAFA74BB2A55E54E97ACBAFB11
:101760002A5DC99255325DA92A59A52A5DB2AAAA55
:101770004A55684AA7D3E9743A9D4EA7D3E9743A0B
:101780009D4EA7D3E9743A9D4EA7D3E9743A9D4E76
:10179000A7D3E9743A9D4EA7D3E9743A5A320FD3CE
:1017A0007D555555F5E992555555AAD2ADAE5455CE
:1017B000AAD2EDAA54953B5DB2CE952C5DB24A55A6
:1017C000ABD3E9745F5555557DBA5D95AA72A74BA9
:1017D00056DD7D95AE64C92A99AE5495AC52952ECE
:1017E000595555A52A9D4EA7D3E9743A9D4EA7D3C6
:1017F000E9743A9D4EA7D3E9743A9D4EA7D3E97494
:101800003A9D4EA7D3E9743A9D4EA7D3E9743A9D09
:101810004EA701320FF8D2EDAA4A55325DA92A59D6
:10182000A52A5DB2EAEEAB745F5555557DBA922597
:10183000AB643A9DEEABAAAAAA4FB7AB5255EE7471
:10184000C9AABBAFD2952C5925D395AA9255AAD235
:1018500025ABAAAA5485A6743A9D4EA7D3E9743A3B
:101860009D4EA7D3E9743A9D4EA7D3E9743A9D4E95
:10187000A7D3E9743A9D4EA7D3E9743A9D4EA7A326
:10188000053F3F801D2A9D0E5ECFDDD55DC794AE1E
:10189000CED5E52E1D7C9DD6E9F49DEB944EA70B8D
:1018A000DA063F3F800E2AA9A4924A2AA97450382A
:1018B000F2D24ADAE1698CC2D63F3F80152A9D0EEA
:1018C000E24FDF3259B2AE64E5B6B57552D97456FF
:1018D000B9CB5D684AA7838F955432BAB44EA7EF4F
:1018E0005CA7743A5DD0263F3F800C4A4925955449
:1018F00052E9743A1D3CBEB5DBE9B7EBB492CE3980
:10190000A7A4924A2AA9D3D9ED76BB1DFE75CE397C
:10191000E79CDB6214B6043F3F801D2ABD0DC28FD9
:10192000362D5DE5A48A382D5D252B275508DA3A3A
:10193000A96C3AAB9C73232E9D0E4DE974F0A892CE
:101940004AA6D34A2AE4A5753A7DE73AA5D3E982A7
:101950008E003F3F80144A4925955452E9743A9DC0
:101960004E075F6FB7DBADDD6EB7DBD74AEA743A7F
:101970009D4EA7E89C934A2AE99C734A2AA9A4721F
:1019800068DA6EB7DB753ABBDD6EB7C39BCE39E75D
:101990009C73CE39E79CC3D516A3B0103F3F80158A
:1019A0002ABD0DC20F4D69E92A2755084B4B57C96F
:1019B000CA491522B74E2A9BCE2AE7DC884DA74399
:1019C000533A1D3CA9A492E9B4920AB9699D4EDF2D
:1019D000B94EE974BAD0043F3F800C4A492595546A
:1019E00052D1A5D3E9743A1DFCBCDDCEBAB5DBED0E
:1019F00076FBF44AEA743A9D4EA7D0E69C545249CD
:101A00002595545249259543E376BBDDAED3D9EDF8
:101A100076BB1D5E74CE39E79C73CE39E71C2EB7BA
:101A20001865071C0790B8AC5CE73AD7B92E77B9B0
:101A3000739DEB5C272B3B02011C0790B8AC5CE765
:101A40003AD7B9CE75EA5B5DD7D59DACEC08041CDE
:101A50000790B8AC5CE73AD7B9CE75AE739DEB5C36
:101A6000A754FDB70D6D1C0F90B8AC5CE73AD7B921
:101A7000CE75AE739DEB5C272B3B0E77B9EABFAEFC
:101A8000EEEEDF6E3B99BDD5B6DDD9736DDB9DBD46
:101A9000D5B693D9ED7F7757D77FE5722B1C0F9082
:101AA000B8AC5CE73AD7B9CE75AE739DEB5C272B2B
:101AB0003B0A3B95CBADAAEBBAFEF3D9CB6D7B9736
:101AC0003DD7B6DDD9736D7B97BDDC36DF7F5DD743
:101AD00095DAE552DD1C0F90A89C53524925955488
:101AE0005249259554D239A930E894DD066F65B77F
:101AF000CA0D0A0FD0974E47B44C9752955452498D
:101B0000252F77B9CBA501090F28B34AF175CEADC2
:101B1000D751A6934A6E954E4706090FBC93B5CE92
:101B20001D57E7DC7A1D653AA9E456E974641D0F78
:101B3000E4B672DB4E5DAEFFAA5B7575ADBAAB5E07
:101B400055B29295AC6425D3EDBA52B5EBEA5B7D04
:101B500095EAD5253BB7AEE444924AAAAA94ACA430
:101B600052A5B6A974E52ED79125AB3B1755FAF2CD
:101B7000ABD4AD642555554A52492A1D0FE4563958
:101B8000E79C924A6EB7E9D09A4E6FB74A2AE99C11
:101B90007352C989A4924A2AA964259554524925A9
:101BA0002B59C94A2AA9E476ABA49295DC2AA964E8
:101BB000259554524925A9001D0FE4B672DB4E5DF0
:101BC000AEFFAA5B75D56DAB7A5BAA2A5595AC645E
:101BD000252BD9BAAA6AD755AAD557A95E5DB27383
:101BE000EB4A4E24A9A4AA4A495739E72AA9CA753B
:101BF000EA76E974ED6A57BBECDA29A9AA52D25504
:101C00004EAAAA94A492541D0FE45639E79C924A16
:101C10006EB7E9D09A4E6FB74A2AE99C7352C989C8
:101C2000A4924A2AA9A4924A2AA9A4924A2AA9A417
:101C3000924A2AA9A4924A2AA9A4924A2AA9A49219
:101C40004A2A49057F1FC023795F55DD555595AC5C
:101C5000AAAAAAAAAAAAAAAAAAAAAAAA40A9D9B317
:101C6000DB4FBDEA539FFAD4ABBE95FDD4AB3EF536
:101C7000A94FBDEA53DBEDAB5EF5AA57BD6ABBFDCC
:101C8000D4AB3EF5A94FBDEA53DB4FBDEA539FFAF3
:101C9000D4AB3EB54E5B682E9D4D67D3D974106CA6
:101CA000365BB96A55E52A5BD5D5A9AAAE4E5575FE
:101CB00075AAAA2B5BD5D5A9AAAE4E557575AAAA49
:101CC0002B5BB94A5DB5AA5555AE5655AEB2555DBA
:101CD0009DAAEAEA545557A7AABAB2555D9DAAEA49
:101CE000EA545557A7AABAB295AB5655AEB295CDA0
:101CF00027D3F9743E9D4F87C2EDB29295EB5CA756
:101D000052A9543A9D4EA7D3E9743A9D4EA7D3E900
:101D1000743A9D4EA7D3E9743A9D4EA7D3E9743A1D
:101D20009D4EA7D3E9743A9D4EA7D3E9743A9D4ED0
:101D3000A7D3E9743A9D4EA7D3E9743A9D4EA7D331
:101D4000E9743A9D4EA7D3E9743A9D4EA7D3E9743E
:101D50003A9D4EA7D3E9743A9D4EA7D3E9743A9DB4
:101D60004EA7D3E9742A954AE53AD7C94A5676BBB5
:101D7000023F07D0145D6C9329BAD8A60BBDD1459C
:101D800017FA639B6DBAE8C21B37000A0000000215
:101D900000210006000080C00D0A0000000200B80B
:101DA000070A000000020097040A000080010204F4
:101DB0000810204080080B00020202010009040004
:101DC00000010202000005240010010524010101A8
:101DD00004240206052406000107058103100040C3
:101DE00009040100020A0000000705020240000089
:101DF000070583024000000403090412010002EFFA
:101E00000201404123368000010102030141726456
:101E100075696E6F204C4C430041726475696E6F3A
:101E2000204C656F6E6172646F00B32E11241FBE6B
:101E3000CFEFDAE0DEBFCDBF12E0A0E0B1E0EAE52F
:101E4000F0E602C005900D92AA36B107D9F728E056
:101E5000AAE6B2E001C01D92AE39B207E1F71FE079
:101E6000C6E1DFE004C02197FE010E942030C531A9
:101E7000D107C9F70E9471210C942B300C940000FB
:101E8000CF92DF92EF92FF920F931F93CF93DF9346
:101E90006C017A018B01C0E0D0E0CE15DF0589F03E
:101EA000D8016D918D01D601ED91FC910190F081E9
:101EB000E02DC6010995892B11F47E0102C02196FF
:101EC000ECCFC701DF91CF911F910F91FF90EF9061
:101ED000DF90CF9008958091FF03E091FD03F09192
:101EE000FE03882349F0CF0102969093FE0380936E
:101EF000FD03859194910895CF0102969093FE037E
:101F00008093FD03808191810895CF92DF92EF92BB
:101F1000FF920F931F93CF93DF930E946B0F811556
:101F200020E8920761F4809171008D7F80937100A9
:101F300010929100469847981092FC038BC021E0C4
:101F40002093FC03813020E8920751F48091FA033A
:101F50009091FB039093FE038093FD030E946B0F0F
:101F600097FD05C02091F903222309F43FC0209179
:101F7000F80321113BC021E020930004EC01DF773E
:101F8000209769F481E08093010446983FE9C32ECD
:101F90003FE0D32EE12CF12CCAEFD0E014C08E012B
:101FA00020E030E060E472E48FE090E0A901980165
:101FB0000E949D2F69017A0181E0C81AD108E108C9
:101FC000F10810920104E0910E08F0910F080995B4
:101FD000811103C081E08093010480910004882373
:101FE000B9F180910104811133C003C01092000443
:101FF000C5CF46992DC0479A0E946B0F009771F08C
:102000009C01DE010E94F12FDC01CB0129E0B59596
:10201000A795979587952A95D1F703C08FEF9FEFE6
:10202000DC01109290002AE020939100D092990058
:10203000C09298008093020490930304A093040438
:10204000B09305048091710082608093710002C09A
:102050004798D2CFDF91CF911F910F91FF90EF90D2
:10206000DF90CF9008953E9A3F9A81E08093F703E6
:1020700008950895089580E090E008950E94263024
:102080000F93CF93DF93EC01EC81E63040F4E43022
:1020900048F48FEF8E0F823008F071C003C0EA3031
:1020A00088F16DC08091DA039091DB03288139813A
:1020B000AC014F585109241735070CF460C0425E3B
:1020C0005E4F421753070CF45AC0F0E0EE0FFF1FAB
:1020D000E95BFE4F408151816A817B81821B930BBA
:1020E00000E021E0CC960E94231C8C8181508C83DF
:1020F000882319F0833009F042C088E893E199837E
:1021000088833DC08091DA039091DB032881398177
:10211000AC014F585109241735078CF1425E5E4FD0
:102120004217530764F1F0E0EE0FFF1FED5CFE4F26
:10213000408151816A817B81821B930B00E020E00A
:10214000C4960E94231CEC81F0E0EE0FFF1FE95BB8
:10215000FE4F408151816A817B818091DA039091A9
:10216000DB0328813981821B930B21E0C4960E94F6
:10217000231C8C818F5F8C838A3009F4BECFDF9162
:10218000CF910F910895CF93DF9300D000D0CDB7BA
:10219000DEB7611571058105910579F09B01AC01F0
:1021A00069833A834B835C830E948F2F29813A8114
:1021B0004B815C810E949D2F03C060E070E0CB01E9
:1021C0000F900F900F900F90DF91CF9108953FB730
:1021D000F8948091070490910804A0910904B091AB
:1021E0000A0426B5A89B05C02F3F19F00196A11D32
:1021F000B11D3FBFBA2FA92F982F8827820F911D9D
:10220000A11DB11DBC01CD0142E0660F771F881FE3
:10221000991F4A95D1F708958F929F92AF92BF92DE
:10222000CF92DF92EF92FF926B017C010E94E71048
:102230004B015C01C114D104E104F104F1F00E94EE
:10224000E710DC01CB0188199909AA09BB09883E6E
:102250009340A105B10570F321E0C21AD108E1084D
:10226000F10888EE880E83E0981EA11CB11CC114F1
:10227000D104E104F10419F7DDCFFF90EF90DF9076
:10228000CF90BF90AF909F908F9008951F920F9224
:102290000FB60F9211242F933F938F939F93AF9379
:1022A000BF9380916A0290916B02A0916C02B091F1
:1022B0006D023091060423E0230F2D3720F40196A0
:1022C000A11DB11D05C026E8230F0296A11DB11D59
:1022D0002093060480936A0290936B02A0936C0291
:1022E000B0936D028091070490910804A0910904B5
:1022F000B0910A040196A11DB11D8093070490932B
:102300000804A0930904B0930A04BF91AF919F9170
:102310008F913F912F910F900FBE0F901F901895A6
:102320001F920F920FB60F9211242F933F934F934A
:102330005F936F937F938F939F93AF93BF93EF932D
:10234000FF938091020490910304A0910404B09142
:102350000504892B8A2B8B2B81F18091010481113B
:102360000BC098B180E4892788B980910004882344
:1023700019F088B1805888B98091020490910304C3
:10238000A0910404B0910504181619061A061B063C
:10239000B4F48091020490910304A0910404B091DC
:1023A00005040197A109B1098093020490930304E5
:1023B000A0930404B093050402C00E94850FFF910E
:1023C000EF91BF91AF919F918F917F916F915F91AD
:1023D0004F913F912F910F900FBE0F901F90189526
:1023E0009C01E1E7F0E090819D7F908381E0809304
:1023F000FF033093FE032093FD033093FB032093F0
:10240000FA030C94850F8FB18095807F669B88605E
:102410001C9B8460089583B7817F83BF83B78160ED
:1024200083BF889583B78E7F83BF0895EDEAFDE172
:1024300090E1969FD001A0781124A80F6770E60F55
:10244000F11D9491A25FBB4F442319F08C91982BFE
:1024500003C090958C9198239C9308951F93CF93DC
:10246000DF93DC0120E030E040E050E011E0C1E02B
:10247000D0E02617370791F114968C9114978111AB
:1024800015C014961C93149712968D919C911397D6
:10249000ED91FC911197E80FF91FE4911596EC93DB
:1024A0001597019613969C938E93129714969C9170
:1024B000149715968C911597892349F0FE01022EE9
:1024C00002C0EE0FFF1F0A94E2F74E2B5F2B990F0D
:1024D00014969C9314972F5F3F4FCBCFCA01DF9187
:1024E000CF911F9108952F923F924F925F926F92DA
:1024F0007F928F929F92AF92BF92CF92DF92EF9294
:10250000FF920F931F93CF93DF9300D01F92CDB70D
:10251000DEB78C017B836A83411196C08091D90319
:10252000E82F880FFF0BF7FF03C0F195E195F10944
:102530008E2FEE0F990BAA0BBB0BFC013197E431E8
:10254000F105D0F4E958FF4F2091DC03022E000C76
:10255000330B0C9420302B5F3F4F02C0295F3F4F5D
:102560006CE07CE182E390E00DC02B5F3F4F6DE0BB
:102570007EE089E390E006C060E070E082E390E0F6
:1025800020E030E0F801A081B181FD01E05CFF4F67
:10259000E090DA03F090DB036F01CE18DF08F8015A
:1025A0005281C816D9060CF44FC0870F911DC8166A
:1025B000D9060CF049C0852F90E0821793070CF4E0
:1025C00043C06901C60ED11C8C159D05ECF5EA814E
:1025D000FB81B183A083245031093383228385E0BA
:1025E000848388E893E1D8018D939C938091E003E4
:1025F0008F5F8093E003833039F58CE792E0498365
:102600000E94F01186E0AA81BB8114968C93809180
:10261000E1034981811103C081E08093E10390913E
:10262000AF038091AE03890F8093AF031092AE0386
:10263000EEEAF2E08EE09081923109F480833496E4
:10264000B3E0EE3AFB07B9F7F80182818533F8F47D
:102650008F3208F0A5C0883208F458C177EEE72E13
:1026600073E0F72EEAEECE2EE3E0DE2EF3E0AF2E9F
:10267000B12CA2E05A2E44244394B6E03B2E8DE0C8
:10268000282E3FE098E8892E93E1992E2CC08D5397
:102690008E3008F03BC189E89DE10E94F011D8011D
:1026A0008D919C911197EA81FB81918380838CE3CA
:1026B00090E09383828381E0848388E893E18D9323
:1026C0009C9324C1841B950B80319105C0F0E4E0FC
:1026D000EE0EF11CF4E0CF0ED11C87EFE81683E07C
:1026E000F80609F413C1D70111968D919C911297A8
:1026F000F801408151812C912111E9CFE3CFD6011E
:102700002C912F5F2C93EA81FB8151834083B5018B
:102710000E940C303B01F4E26F0E711CAA81BB8158
:1027200013967C926E92129714965C92253021F04B
:10273000F80191828082CBCF8CE792E039830E94AE
:10274000F011D7014C92F80180819181AA81BB815F
:1027500011969C938E9313967C926E921297149678
:102760003C92EEEAF2E080E039819081911112C052
:102770002082D70111964D915C911297405F5F4F77
:1027800053834283839F902D1124965F91838F5FA3
:10279000803171F23496B3E0EE3AFB0731F7C8CFDF
:1027A00060817181EEEAF2E0E12CF12C828193816B
:1027B000208121502C30C0F5861B970B0397A0F584
:1027C00087E99DE10E94F011F80180819181AA8141
:1027D000BB8111969C938E9384E390E013969C9317
:1027E0008E93129782E014968C9388E893E19183FC
:1027F0008083F701EE0FFF1FEE0FFF1FE255FD4F25
:1028000080E180832091AF032F5F2093AF038091FD
:10281000AC0290E0820F911D8034910509F076C0E2
:1028200082E38093E10372C0BFEFEB1AFB0A349698
:1028300080E4E816F10409F0B9CF442309F466C036
:102840008EE6E82E82E0F82E96E7892E92E0992E09
:1028500022E0722E38E8A32E33E1B32E42E3C42ED9
:10286000D12C56E0652ED70113968D919C9114972B
:10287000F8012081318145814A31E0F1821B930BBF
:1028800097FF03C09195819591098031910594F549
:10289000AA81BB812D933C9308971CF083E390E0C1
:1028A00002C08EE290E0EA81FB819383828374828E
:1028B000D801AD92BC92F40180818F5F808390E05B
:1028C00020910001213019F026E030E002C024E020
:1028D00030E08217930771F48CE792E00E94F011C8
:1028E000AA81BB811396DC92CE92129714966C92B9
:1028F000F7017082F9E0EF0EF11C89E0880E911C5F
:102900009BE9E91692E0F90609F0ADCF0F900F9020
:102910000F90DF91CF911F910F91FF90EF90DF907B
:10292000CF90BF90AF909F908F907F906F905F906F
:102930004F903F902F900895E9EDF3E081E0808380
:102940001482158211861282118288E28383168294
:102950001782108688E893E19093B1038093B003C7
:102960009093A8028093A7021092AD0210921A08C9
:102970000895AF92BF92CF92DF92EF92FF920F93A2
:102980001F93CF93DF930E949C1480EA90E0909372
:10299000DB038093DA031092AF031092AE03109220
:1029A000AC021092E303D1E0D093E403D093E703A9
:1029B00080E9A82EBB24B394B092E903A092E80367
:1029C0001092EA031092EB0390E2C92E93E0D92E05
:1029D000D092ED03C092EC031092EE031092EF033D
:1029E00020EBE22E24E0F22EF092F103E092F003CD
:1029F0001092F2031092F30300E416E01093F50333
:102A00000093F4031092F60360E971E080E090E037
:102A10000E94C310C5E0C0936E0210926F02C09373
:102A2000700268537F4F7093720260937102B0928C
:102A30007402A0927302D09375021092760260E93C
:102A400071E080E090E00E94C310C0937702109282
:102A50007802C0937902685A7D4F70937B0260932D
:102A60007A02D0927D02C0927C02D0937E021092B4
:102A70007F0260E971E080E090E00E94C310C093A3
:102A8000800210928102C093820268517C4F709341
:102A9000840260938302F0928602E0928502D093D2
:102AA00087021092880260E971E080E090E00E9465
:102AB000C310C093890210928A02C0938B02685897
:102AC0007A4F70938D0260938C0210938F02009363
:102AD0008E02D09390021092910260E971E080E042
:102AE00090E00E94C310C093920210929302C09390
:102AF0009402685F784F709396026093950280ED20
:102B000097E09093980280939702D0939902109245
:102B10009A02EEEAF2E080E09DE04FE0A82FA29555
:102B2000AF7024E0A29FD0011124A951BC4F11968F
:102B30002D913C9112979083982F9F70949F902D88
:102B40001124965F9183338322838F5F3496803480
:102B500031F0803110F090E0E1CF9DE0DFCF80E0F8
:102B600090E048E853E1FC01EB54FC4F28E833E1E6
:102B70005183408312821382148215820696843216
:102B8000910589F730939C0220939B0210929D023D
:102B900010929E0210929F021092A0023093A20205
:102BA0002093A1021092A3021092A4021092A502F7
:102BB0001092A60281E08093E503DF91CF911F91EF
:102BC0000F91FF90EF90DF90CF90BF90AF9008955E
:102BD000CF92DF92EF92FF920F931F93CF93DF93E9
:102BE000142F111F1127111F042E000C550B57FF16
:102BF00003C05195419551094150510996E0949F68
:102C0000E001959FD00D1124C62E660FDD08E82E39
:102C1000880FFF08FE01EE0FFF1FE35AFE4F4081B1
:102C20005181012F20E0B601C7010E94231CFE0143
:102C3000EE0FFF1FE55AFE4F4081518121E0B601A2
:102C4000C7010E94231C8091E603C80FD11DCC0F41
:102C5000DD1FC15ADE4F4881598121E0B601C7010D
:102C60000E94231CDF91CF911F910F91FF90EF9055
:102C7000DF90CF900895082E000C990BAA0BBB0B88
:102C8000FC013896E131F10530F5E557FF4F0C9422
:102C90002030611118C019C0611115C018C0611130
:102CA00014C019C0662331F012C0611114C006C0EF
:102CB000662379F08FEF0895662359F08EEF08951B
:102CC000662349F006C084E0089582E0089581E01B
:102CD00008958CEF089580E00895EF92FF920F938E
:102CE0001F93CF93DF93182FE090AD020E2C000CB2
:102CF000FF08C091AD028C2F0C2E000C990B8B5647
:102D00009F4F8E159F056CF000E021E041E75DE1EB
:102D10006BE270E0C7010E94231C20E4E20EF11C6C
:102D2000E8CFC178C7FF03C0C150CE6FCF5F0C2E74
:102D3000000CDD0BC038D10530F441E063E370E0F6
:102D4000CE010E9416122296C138D1059CF38091C3
:102D5000DA039091DB039C0123563F4F263031402C
:102D6000A8F400E029E04AE26BE270E0865A9F4F47
:102D70000E94871D8091DA039091DB0321E044E4F7
:102D80005CE160E270E04A960E94231C1111F9C3D5
:102D9000C7EED3E08091DA039091DB03E980FA80FB
:102DA0009C012F583109E216F30694F1225E3E4F42
:102DB0002E153F056CF128818E199F0900E0211125
:102DC00011C047E05CE168E270E0C1960E94231CFC
:102DD0008091DA039091DB038E199F0921E048EB83
:102DE0005BE111C020E04BE75BE168E270E0C19677
:102DF0000E94231C8091DA039091DB038E199F09B6
:102E000021E04EE25BE168E270E0C1960E94231C83
:102E1000249683E0C73FD80709F0BCCFCEEAD2E0C2
:102E20008091DA039091DB032A813B81AC01445805
:102E30005109241735070CF44EC0485F5E4F421706
:102E400053070CF448C0A8814A2F50E04150510963
:102E50004031510508F03FC044565F4FFA010C94D1
:102E60002030EA2FF0E0EE0FFF1FED5DFE4F4081B6
:102E70005181821B930B00E00BC0EA2FF0E0EE0FB4
:102E8000FF1FE55EFE4F40815181821B930B01E0E5
:102E900021E060E370E0CD960E94231C1CC0821BE1
:102EA000930B00E021E04AE15BE1F3CF821B930B3F
:102EB00000E021E047E05BE1ECCF821B930B00E0F8
:102EC00021E042EF5AE160E370E0CD960E94231CBE
:102ED0008881815088832496F3E0CE3ADF0709F099
:102EE0009FCF8091E1039DEF980F9F3240F040917A
:102EF000D9036091DC038DE20E94E81519C08F5F51
:102F00008093E1038E31A1F48091E4038F5F80937D
:102F1000E4038430A0F42091AF038091AC0290E0F0
:102F2000820F911D8034910554F482E08093E50373
:102F3000CEE6D2E065E7E62E62E0F62E02C084E03F
:102F4000F5CF8881882309F494C08091DA039091A9
:102F5000DB032B813C81AC014F5851092417350705
:102F60000CF487C0425E5E4F421753070CF481C0D9
:102F7000821B930B00E020E045ED5AE16FE270E028
:102F8000C1960E94231CF7018081811103C046E68F
:102F90005AE102C04DE95AE18091DA039091DB03D6
:102FA0002B813C81821B930B00E021E06FE270E0FB
:102FB000C1960E94231CF70136978081823041F12F
:102FC00078F48823D9F0813009F044C08091DA0385
:102FD0009091DB032B813C81821B930B01E02EC07F
:102FE000833019F18430B1F58091DA039091DB03DD
:102FF0002B813C81821B930B00E024C08091DA037B
:103000009091DB032B813C81821B930B01E01AC062
:103010008091DA039091DB032B813C81821B930B1F
:1030200000E021E043E25AE110C08091DA03909180
:10303000DB032B813C81821B930B00E021E049E301
:103040005AE103C021E04FE45AE16FE270E0C1961B
:103050000E94231C88819DEF980F923030F4F70175
:10306000908181E08927808304C0833010F48150EF
:1030700088832996F9E0EF0EF11C22E0CB39D207C4
:1030800009F05FCFC0E0D0E0FE01EB54FC4F20819F
:103090003181283843E13407C9F08091DA039091F7
:1030A000DB03AC014F585109241735077CF0425E11
:1030B0005E4F4217530754F0628170E0821B930BFE
:1030C00001E022E042E0CF960E94871D2696C4329E
:1030D000D105D1F6C0E0D0E0FE01E556FD4F2081DC
:1030E0003181283883E13807C9F08091DA03909163
:1030F000DB03AC014F585109241735077CF0425EC1
:103100005E4F4217530754F0628170E0821B930BAD
:1031100001E022E042E0CF960E94871D2696CC3047
:10312000D105D1F68091A7029091A80288389341E9
:1031300021F087EA92E00E9440108091B0039091C4
:10314000B1038838934159F080EB93E00E9440101E
:103150008091E103882319F08F5F8093E1038091D0
:10316000DA039091DB038A3F91050CF047C0823D62
:1031700091050CF003C1843B910514F58A3A910541
:103180000CF0BAC0883791050CF467C1803A9105FC
:103190000CF09CC001E020E047ED59E162E070E0F6
:1031A0008E5A91090E94231C8091DA039091DB03CF
:1031B00021E04CE959E162E070E08E5A91094BC17F
:1031C000883C91050CF0C4C08E3B91050CF0AAC060
:1031D00000E020E042EA58E162E070E0885791099F
:1031E0000E94231C8091DA039091DB0321E041E8E7
:1031F00058E162E070E0885791092DC1823F28E0D4
:10320000920754F5883E48E094070CF0F9C08E3DD3
:10321000E8E09E070CF0DEC0843DF8E09F070CF06C
:10322000C3C08C3A28E092070CF417C101E020E0FB
:1032300047ED59E162E070E0825E98400E94231CF5
:103240008091DA039091DB0321E04CE959E162E0DF
:1032500070E0825E9840FFC0863049E09407DCF45D
:103260008C3FE8E09E070CF0E1C000E020E047EE74
:1032700058E162E070E08E5A98400E94231C8091D1
:10328000DA039091DB0321E049EB58E162E070E062
:103290008E5A9840E0C08E32F9E09F070CF0DDC0F6
:1032A00000E020E047ED59E162E070E0825B984089
:1032B0000E94231C8091DA039091DB0321E04CE90A
:1032C00059E162E070E0825B9840C5C001E020E017
:1032D00042E559E162E070E0805B91090E94231CA5
:1032E0008091DA039091DB0321E047E159E162E04C
:1032F00070E0805B9109AFC001E020E047EE58E14B
:1033000062E070E0825B91090E94231C8091DA03E5
:103310009091DB0321E049EB58E162E070E0825BD1
:10332000910999C000E020E047EE58E162E070E0CA
:103330008A5791090E94231C8091DA039091DB0344
:1033400021E049EB58E162E070E08A57910983C0BF
:1033500000E020E042E559E162E070E08C5791091D
:103360000E94231C8091DA039091DB0321E047E166
:1033700059E162E070E08C5791096DC000E020E0F7
:1033800047ED59E162E070E08E5791090E94231CDD
:103390008091DA039091DB0321E04CE959E162E08E
:1033A00070E08E57910957C001E020E042E559E1F5
:1033B00062E070E0845E98400E94231C8091DA03F2
:1033C0009091DB0321E047E159E162E070E0845E27
:1033D000984041C001E020E047EE58E162E070E033
:1033E000865E98400E94231C8091DA039091DB0353
:1033F00021E049EB58E162E070E0865E98402BC026
:1034000000E020E042EA58E162E070E08C5A984027
:103410000E94231C8091DA039091DB0321E041E8B4
:1034200058E162E070E08C5A984015C000E020E05E
:1034300042E559E162E070E0805B98400E94231C05
:103440008091DA039091DB0321E047E159E162E0EA
:1034500070E0805B98400E94231C00E021E04CEC6F
:1034600051E060E070E08FEF9FEF0E94231C80919D
:10347000AF03CAE06C2F0E940030E82FF0E0EE0F9F
:10348000FF1FEF5EFE4F4081518121E060E070E060
:1034900084E090E00E94231C8091AF036C2F0E9477
:1034A0000030E92FF0E0EE0FFF1FEF5EFE4F40818E
:1034B000518121E060E070E089E090E00E94231CEF
:1034C00021E043EC51E060E070E08EE090E00E948B
:1034D000231C8091AE036C2F0E940030E82FF0E097
:1034E000EE0FFF1FEF5EFE4F4081518121E060E053
:1034F00070E085E190E00E94231C8091AE036C2F68
:103500000E940030E92FF0E0EE0FFF1FEF5EFE4F4C
:103510004081518121E060E070E08AE190E00E940A
:10352000231C21E04AEB51E060E070E08FE190E085
:103530000E94231C8091AC026C2F0E940030E82F67
:10354000F0E0EE0FFF1FEF5EFE4F4081518121E062
:1035500060E070E086E290E00E94231C8091AC0263
:103560006C2F0E940030E92FF0E0EE0FFF1FEF5E9E
:10357000FE4F4081518121E060E070E08BE290E0FD
:1035800018C0123049F0133061F01130A1F400E09E
:1035900021E043E158E109C000E021E04DE957E1B5
:1035A00004C000E021E040E357E166E170E086E21C
:1035B00090E00E94231CDF91CF911F910F91FF900B
:1035C000EF900895FC0180910D04811103C08FEFED
:1035D0009FEF08959FB7F89482E08093E9002091CF
:1035E000F20030E01216130614F421E030E0211549
:1035F000310559F0289884E680930C048091F100FD
:1036000080838091F200882319F09FBFC90108953B
:103610008BE68093E800F9CF2FB7F89483E080938E
:10362000E9009091E800892F807295FF04C0909185
:10363000F20080E4891B2FBF0895CF93DF931F9280
:10364000CDB7DEB76983DC01ED91FC910280F38197
:10365000E02D41E050E0BE016F5F7F4F09950F9074
:10366000DF91CF91089583E08093E9008091F2008B
:10367000882319F08AE38093E80008950E940C1BC8
:1036800090E00895CF93DF931F92CDB7DEB7FC0192
:103690008485958597FD05C02FEF3FEF35872487FB
:1036A0000BC0CE0101960E94E21A019719F489819C
:1036B00090E002C08FEF9FEF0F90DF91CF910895C0
:1036C0000F931F93CF93DF931F92CDB7DEB78C017B
:1036D000FC018485958597FF0EC0CE0101960E945E
:1036E000E21A019719F4298130E002C02FEF3FEF71
:1036F000F80135872487F801848595850F90DF913F
:10370000CF911F910F910895FC018485958597FDB8
:103710000BC09FB7F89482E08093E9008091F2009B
:103720009FBF90E0019608959FB7F89482E0809340
:10373000E9008091F2009FBF90E008958F929F92E0
:10374000AF92BF92CF92DF92EF92FF920F931F93AF
:10375000CF93DF935C016B017A018091080188238C
:1037600009F45BC080910D04882309F456C0809150
:103770000B0480FF05C08091E00082608093E00030
:10378000E70110E00AEF83E0882E9AE3992E209754
:10379000D9F10E940C1B81110AC0015009F43DC0EF
:1037A00061E070E080E090E00E940C11F0CF282FE3
:1037B00030E0C217D3070CF48C2F4FB7F8948092E7
:1037C000E9009091E80095FF1DC0282F30E0C21B52
:1037D000D30BF601982F915020F081918093F10046
:1037E000FACFC20ED31E112319F09092E80009C03F
:1037F0008091E80085FD06C09092E80011E02097D6
:1038000009F010E04FBFC3CF1111C3CF5D9884E61C
:1038100080932D081E141F0444F081E090E0F50110
:103820009383828380E090E001C0C701DF91CF9154
:103830001F910F91FF90EF90DF90CF90BF90AF90CE
:103840009F908F9008952F923F924F925F926F9228
:103850007F928F929F92AF92BF92CF92DF92EF9220
:10386000FF920F931F93CF93DF93CDB7DEB761978E
:103870000FB6F894DEBF0FBECDBF4C017B012A8787
:103880005A8349831C821B821D821E8268E070E07D
:10389000CE0101960E942E123C01AC014F5F5F4F9A
:1038A0005987488768E070E0CE0101960E942E1289
:1038B0006C0161E070E0CE0101960E942E12288515
:1038C0003985280D391D37FDFEC050E88516910455
:1038D0000CF0F9C096012F5F3F4FA701420F531F15
:1038E00057FDF1C060E4E616F1040CF0ECC067018E
:1038F000F7FE04C0CC24DD24CE18DF0877E0C72211
:10390000DD24A701F7FE02C0495F5F4F2A0153E0A3
:10391000559447945A95E1F7F7FE09C091E0491A8A
:10392000510848E050E0FA01EC19FD096F01A901C6
:1039300037FF02C0495F5F4F1A0143E03594279477
:103940004A95E1F727703327232B19F0FFEF2F1A41
:103950003F0A002311F0730102C0E12CF12C8F8388
:1039600021E010E0A12CB12C88E090E0AC014C19D2
:103970005D095C874B87A214B3040CF0A4C041E03E
:1039800050E061E070E0CE0101962F874D875E87A1
:103990000E942E122F854D855E85892B19F44E5F6E
:1039A0005F4FEFCFBA01CE0101960E942E12DC01CB
:1039B000119640E050E02F854A175B0708F07AC067
:1039C0006F816111122B220F09F071C0C2018A0DA3
:1039D0009B1D9C012F5F3F4F2930310508F04AC0E5
:1039E0009701280D391D2038310508F043C0BC016E
:1039F0007695762F662777956795680D791D6E0DFC
:103A00007F1D8F3FEFEF9E0709F459C0212F30E053
:103A1000F9010C2C02C0EE0FFF1F0A94E2F7F98B9C
:103A2000E88BFB01E25FFB4F2A85222321F03081E6
:103A30002889232B04C028892095308123232083C3
:103A4000C114D104B9F00797A9F0812F90E00B843D
:103A500002C0959587950A94E2F7FB01E257FB4F68
:103A60002A85222319F01081812B03C080951081B3
:103A700081238083011110C06FEFE61AF60A888552
:103A80009985E816F9068CF09FEFA91AB90A21E08A
:103A900010E0E12CF12C0BC0E1E0EE1AF108F7FE8A
:103AA00004C0FFEFAF1ABF0A730121E010E04F5FBF
:103AB0005F4F82CF4F8151E045274F835CCFC114C8
:103AC000D10419F6D7CF61960FB6F894DEBF0FBEBA
:103AD000CDBFDF91CF911F910F91FF90EF90DF90BD
:103AE000CF90BF90AF909F908F907F906F905F909E
:103AF0004F903F902F90089520912108282329F47A
:103B000090912008982381E009F480E008958F9235
:103B10009F92AF92BF92CF92DF92EF92FF920F935C
:103B2000CF93DF936B01EC014C01840E911C5B0180
:103B3000A20EB11CC815D905F4F47601D7FE11C048
:103B4000E12CF12C0EC0E816F9069CF4C038D10522
:103B500028F4402FB701CE010E9416122FEFE21A6F
:103B6000F20AC50121E4A216B1046CF380E490E0EE
:103B7000EACF2196DFCFDF91CF910F91FF90EF90A9
:103B8000DF90CF90BF90AF909F908F90089565E0A9
:103B900070E080E090E00C940C11FC0190911A0808
:103BA0009A3011F480E008958081E92FF0E0E05F21
:103BB000F74F8083E1E0E90FE0931A08EA3091F3D0
:103BC000DB018C91F0E0E05FF74F80839E5F909384
:103BD0001A0881E00895FC0190911A089A3011F4B6
:103BE00080E008958081E92FF0E0E05FF74F808367
:103BF000E1E0E90FE0931A08EA3091F3DB018C91E0
:103C0000F0E0E05FF74F8083E2E0E90FE0931A080D
:103C1000EA3031F3DA018C91F0E0E05FF74F808316
:103C20009D5F90931A0881E00895FC0190911A0815
:103C30009A3059F08081E92FF0E0E05FF74F808300
:103C40009F5F90931A0881E0089580E00895809125
:103C5000320881110DC082E080932E0884E08093A9
:103C60002F08109231081092300881E080933208BA
:103C70008EE298E008951F920F920FB60F921124D2
:103C80008F939F938091E1009091E100937F9093B7
:103C9000E10083FF0FC01092E90091E09093EB00E8
:103CA0001092EC0092E39093ED0010920D0498E0D6
:103CB0009093F00082FF20C093E09093E9009091F0
:103CC000F200992319F09AE39093E80090912D085F
:103CD000992339F090912D08915090932D089923B4
:103CE00089F190910C04992339F090910C04915032
:103CF00090930C04992341F184FF10C08091E2005D
:103D00008E7E81608093E2008091E1008F7E8093BF
:103D1000E10080910B048E7E806111C080FF16C08F
:103D20008091E2008E7E80618093E2008091E100CC
:103D30008E7E8093E10080910B048E7E8160809363
:103D40000B0404C05D9ACDCF289AD6CF9F918F9156
:103D50000F900FBE0F901F90189540919C085091A6
:103D60009D0820919A0830919B0842175307B4F49C
:103D70009091E8009570E1F39091E80092FD19C0F0
:103D80008093F10080919C0890919D0801968F731B
:103D90009927892B19F48EEF8093E80080919C0875
:103DA00090919D08019690939D0880939C0881E0D6
:103DB000089580E00895DF92EF92FF920F931F9392
:103DC000CF93DF93D82E8A017B01E40EF51EEB0121
:103DD000CE15DF0571F0D7FE03C0FE01849101C04E
:103DE00088810E94AD1E21968111F2CF8FEF9FEF47
:103DF00001C0C801DF91CF911F910F91FF90EF900B
:103E0000DF900895615030F02091F100FC01208393
:103E10000196F8CF289884E680930C0408950F93B8
:103E20001F93CF93DF931F92CDB7DEB782E08983D4
:103E300042E450E065EB7DE180E80E94DB1E0E94D9
:103E4000271EDC0112960D911C9113970115110587
:103E500069F0D801ED91FC910280F381E02DBE0163
:103E60006F5F7F4FC801099597FF07C089810F9049
:103E7000DF91CF911F910F910895F8010085118571
:103E8000E5CF1F920F920FB60F921124CF92DF92BF
:103E9000EF92FF920F931F932F933F934F935F9354
:103EA0006F937F938F939F93AF93BF93EF93FF9302
:103EB000CF93DF93CDB7DEB76C97DEBFCDBF109247
:103EC000E9008091E80083FFEDC168E0CE014596EE
:103ED0000E94021F82EF8093E8008D8987FF05C052
:103EE0009091E80090FFFCCF03C09EEF9093E80014
:103EF000982F907609F0C6C09E892F89188D911150
:103F00000CC0803829F4809199088093F10002C098
:103F10001092F1001092F10048C1422F50E0512B55
:103F2000913051F4811141C14130510509F03DC139
:103F3000809199088D7F0BC0933061F4811135C158
:103F40004130510509F031C1809199088260809318
:103F500099082BC1953041F48091E80080FFFCCF97
:103F600020682093E30021C1963009F05FC0EB8CFC
:103F7000FC8C1092E90010929D0810929C0812305F
:103F800091F510929B0810929A080E940F1F99E0D9
:103F9000BE016F5F7F4FDB01E92F1D92EA95E9F7C4
:103FA00099831A8391E09E8390EA98879AEF998784
:103FB00020919C0830919D08275F3F4F3C832B83C5
:103FC0008D831092E90010929D0810929C08F09247
:103FD0009B08E0929A0849E050E080E00E94DB1ED6
:103FE0000E940F1FE2C0F0929B08E0929A080E9484
:103FF000271EDC011296ED90FC901397E114F1045A
:1040000009F4C0C0D701ED91FC910480F581E02D49
:10401000BE016B5E7F4FC7010995009719F00CF048
:10402000C4C0C7C0F701E084F184E8CF973009F439
:10403000C0C0983021F481E08093F100B6C099307F
:1040400009F0B3C0837009F0B4C0E4E6F2E081E0A7
:1040500021E036E39081992361F08093E900209379
:10406000EB0091919093EC003093ED008F5F8730DF
:1040700089F78EE78093EA001092EA008F89809397
:104080000D0493C08B8D9C8D1092E90010929D08B9
:1040900010929C0890939B0880939A08898D8111B7
:1040A00056C08E899D89913A59F4813209F081C0B8
:1040B00047E050E061E071E080E00E94DB1E75C0E7
:1040C000913209F076C0833289F4888D90E0982F80
:1040D00088272F89822BA0E0B0E08093090190937C
:1040E0000A01A0930B01B0930C015FC0803269F408
:1040F0008091E80082FFFCCF67E081E091E00E94C0
:10410000021F8BEF8093E80006C0823209F04DC099
:104110008F898093080180919808882319F0EEEF29
:10412000FAE002C0E0E0F8E0809101019091020124
:10413000A0910301B0910401803B9440A105B10519
:1041400009F07BC08091080180FF93C076C00E9477
:10415000271EDC0112960D911C9113970115110574
:1041600041F1D801ED91FC910190F081E02DBE016B
:104170006B5E7F4FC8010995811117C0F80100855A
:104180001185ECCF113009F44EC0133091F48F89B2
:10419000882309F445C0823081F440E860E189E178
:1041A0009EE10E94042F882321F08EEF8093E80087
:1041B00079C081E28093EB0075C0813029F440E83A
:1041C0006BE08DE09EE1EDCF833099F70E94271ED2
:1041D000DC011296ED90FC9013978E010F5F1F4F3C
:1041E0006801E114F10479F0D701ED91FC910680AA
:1041F000F781E02DB801C7010995080F111DF701DE
:10420000E084F184EECFD8011C92F60101900020E9
:10421000E9F73197BF016C197D0940E0C601C1CFB4
:1042200067EF7DE102C06BEF7DE16115710509F279
:10423000FB01449150E080E840CF0FB6F894A89578
:1042400080916000886180936000109260000FBED2
:10425000A895EE3F2AE0F20739F08091FE0A90918E
:10426000FF0A91838083A1CF1092FF0A1092FE0A69
:104270009CCFEE3F8AE0F80731F0808191819093E6
:10428000FF0A8093FE0A87E797E7918380839BE08C
:1042900088E10FB6F894A895809360000FBE9093C4
:1042A000600083CF6C960FB6F894DEBF0FBECDBF13
:1042B000DF91CF91FF91EF91BF91AF919F918F913E
:1042C0007F916F915F914F913F912F911F910F912E
:1042D000FF90EF90DF90CF900F900FBE0F901F9048
:1042E0001895CF93DF9300D01F92CDB7DEB77894A7
:1042F00084B5826084BD84B5816084BD85B58260EB
:1043000085BD85B5816085BD80916E00816080939B
:104310006E00109281008091810082608093810004
:104320008091810081608093810080918000816014
:1043300080938000809191008260809391008091B1
:1043400091008160809391008091900081608093C2
:1043500090008091C10084608093C1008091C10071
:1043600082608093C1008091C10081608093C10010
:104370008091C30081608093C3008091C0008260FF
:104380008093C0008091C20081608093C2008091C0
:104390007A00846080937A0080917A0082608093B2
:1043A0007A0080917A00816080937A0080917A000F
:1043B000806880937A0010920D04109299081092F0
:1043C0000B048091D70081608093D70080EA8093AE
:1043D000D80089B5806189BD89B5826089BD09B47D
:1043E00000FEFDCF61E070E080E090E00E940C11E3
:1043F0008091D8008F7C80618093D8008091E0000C
:10440000807F8093E0008091E1008E7E8093E100C8
:104410008DE08093E200559A209AEEEFFFE78591B8
:1044200094918B3F9C4D19F481E08093980881EC26
:1044300080937C0085B1806F85B9249884B1866EA5
:1044400084B95E9A5F988AB1806D8AB9769A6E98BF
:1044500081B3806F81BB899880B38D7080BB80E50C
:104460008CBD81E08DBD0E94C71D5F9A0E94C71D53
:104470005E985C98EDEAF1E08DE08E0F94919EBD20
:1044800000000DB407FEFDCF31968E13F7CF5C9A76
:1044900081E88093640081E0809365000E940312AC
:1044A00087FF13C05C9885EA8EBD00000DB407FE3F
:1044B000FDCF5C9A2E982F982D9880916400806291
:1044C000809364000E940B12FDCF88E28093220843
:1044D000809164008E7F8093640080917A00806474
:1044E00080937A0080917A0086FDFCCF009178005D
:1044F000109179000E94E71020E030E09801112728
:104500000027600F711F821F931F611571058105C0
:10451000910511F00E94942F809164008160809336
:1045200064000E94B9141092E50318E8812E13E18B
:10453000912E2FB7F89480916A0290916B02A0910E
:104540006C02B0916D022FBF40912708509128084E
:104550006091290870912A0820912B08222341F0AC
:1045600020912308821B80932C0810922B0807C7E8
:1045700084179507A607B70738F4481B423008F49C
:10458000FEC60E940B12FBC621E020932B088093ED
:10459000230890932408A0932508B093260820911F
:1045A0002208820F911DA11DB11D809327089093B1
:1045B0002808A0932908B0932A0880911E0890919A
:1045C0001F08019690931F0880931E088091E603B0
:1045D0008F5F843019F08093E60302C01092E603E7
:1045E00080912008809321080E9403128093200864
:1045F00080E0EEE0F4E081118FEF0024819381935D
:10460000819381930394D1F78091E503823009F47B
:104610006AC028F4882351F0813079F09FC6833036
:1046200009F46FC0843009F42DC698C60E94B914ED
:1046300085E894E00E94F01191C600E021E04CED85
:1046400053E068E170E080E190E00E94231C8091DB
:10465000E303823450F021E04BE953E066E370E07D
:1046600084E290E00E94231C03C08F5F8093E303E9
:10467000E090DA03F090DB0335ECE3163FEFF3064E
:10468000ACF000E020E04AE553E06CE070E0C701E8
:104690000E94231C46E06CE08E2D0E94E81543E04A
:1046A000E41AF108F092DB03E092DA0388E00E945A
:1046B0007C1D882351F088E393E00E94F01181E093
:1046C0008093000182E08093E50384E00E947C1DDA
:1046D000882309F443C688E393E00E94F01182E046
:1046E00080930001CCC50E949C148091E4030E9439
:1046F0006D1688E00E947C1D882309F42FC683E094
:10470000BEC580911A0881117CC10E94031290914C
:10471000DC0387FF04C09E3FA4F060E007C098322E
:1047200084F480910001823041F461E08091DE03E5
:104730000E943B168093DE0304C08091DE031816AE
:10474000A4F70E94031282FF98C09091DD0380912C
:10475000D90391115CC08130F9F08A30B1F18F3FFB
:1047600009F08BC087EF89838AE08A83BE016F5F7F
:104770007F4FCE0102960E94CD1D89EF898388EF7D
:104780008A83BE016F5F7F4FCE0102960E94CD1DCE
:1047900081E08093DF0371C089E089838AE08A83A6
:1047A000BE016F5F7F4FCE0102960E94CD1D87E054
:1047B000898388E08A83BE016F5F7F4FCE010296B6
:1047C0000E94CD1D1092DF0358C08091DF0381113C
:1047D0000FC089EF89838FEF8A83BE016F5F7F4FA0
:1047E000CE0102960E94CD1D87EF898388EF3DC0E0
:1047F00087E0898381E08A83BE016F5F7F4FCE01AE
:1048000002960E94CD1D89E0898388E02EC0843FF6
:1048100029F18CF48F3E89F584E1898386E08A83CF
:10482000BE016F5F7F4FCE0102960E94CD1D8EEEBE
:1048300089838DEE1AC08C30A9F08131F1F48CEEB1
:1048400089838AEF8A83BE016F5F7F4FCE01029614
:104850000E94CD1D82E1898383E107C08CEE8983AC
:104860008AEF03C084E1898386E08A83BE016F5F9B
:104870007F4FCE0102960E94CD1D0E94031285FF3C
:104880000AC08091DC0388320CF481C50E940312B7
:1048900087FD7DC53AC60E94031286FF0AC080913B
:1048A000DC0388320CF44EC70E94031287FD4AC70E
:1048B000DEC78091D9038A3FD9F154F48F3E09F4C1
:1048C0006DC0843F09F09DC085EF89838AE043C0B5
:1048D0008C30D1F0813109F44DC0863009F091C09F
:1048E00083E0898382E08A8381E08B83AE014F5F1E
:1048F0005F4FBE016E5F7F4FCE0103960E94EB1D9E
:1049000085E0898384E003C08BE089838AE08A8321
:10491000BE016F5F7F4FCE0102960E94CD1D809138
:10492000DD03882309F46DC081E08093E20369C050
:104930008DEF89838EEF8A838FEF8B83AE014F5F7C
:104940005F4FBE016E5F7F4FCE0103960E94EB1D4D
:104950008BEF89838CEF8A83BE016F5F7F4FCE011F
:1049600002960E94CD1D8091DD03882309F449C081
:1049700082E0DBCF8EE089838DE08A8381E08B83C8
:10498000AE014F5F5F4FBE016E5F7F4FCE0103965A
:104990000E94EB1D80E189838FE0DDCF82EF898368
:1049A00083EF8A838FEF8B83AE014F5F5F4FBE0132
:1049B0006E5F7F4FCE0103960E94EB1D80EF8983CF
:1049C00081EFA5CF8130A1F684E0898385E08A83D9
:1049D00086E08B83AE014F5F5F4FBE016E5F7F4FFE
:1049E000CE0103960E94EB1D12E0198383E08A83B7
:1049F000BE016F5F7F4FCE0102960E94CD1D1093C6
:104A0000E20388E00E947C1D882329F18091D9036C
:104A1000082E000C990B97FF03C091958195910981
:104A2000982F8D508730B8F0913014F40C943F2DAE
:104A300094300CF0C4C7E5EBF3E000E010E08081B7
:104A400091818838934109F4BEC70F5F1F4F369696
:104A500006301105A1F7E0911A0880911E08909187
:104A60001F08EE23C1F180FD36C03091D903AFEFAE
:104A7000AE0FA0931A08B0E0A05FB74F2C9120931F
:104A8000D903223361F422E02093E203E250E09361
:104A90001A08F0E0E05FF74F20812093D9032091BE
:104AA000D903233371F421E02093E203E0911A0843
:104AB000E150E0931A08F0E0E05FF74F2081209387
:104AC000D9032091D903243331F41092E2031092D8
:104AD000DD033093D90383709927892BA9F4809142
:104AE000E203813011F461E003C0823039F460E008
:104AF0008091DD030E943B168093DD038091DD03EE
:104B0000811102C01092E2039091DE03983F0CF4F1
:104B100099C08091DC039F3F31F02CF02FEF290FDB
:104B20002830F8F08FC018160CF487C09C3F69F449
:104B30009EEF9093DE038F3F0CF07FC09FEF90932A
:104B4000DE038E3F0CF46EC078C08F3F0CF075C052
:104B50009E3FA1F38E3F09F470C09F3F09F06DC0E6
:104B600061C028E230E0291B310997FD3395482FB9
:104B7000082E000C550B421753070CF460C020910F
:104B8000D9032C3034F427303CF42150233078F50D
:104B900003C02D50223058F58532BCF0943059F4C2
:104BA00092E09093DE03873284F091E09093DE03ED
:104BB00088324CF40AC0873244F09230B1F3873225
:104BC00021F0913011F41092DE032091DE03820F68
:104BD0008093DC038091B2039091B303820F911D07
:104BE00027FD9A959093B3038093B2032BC0943022
:104BF000E1F42091DD03022E000C330B37FF03C0DC
:104C000031952195310922300CF03EC78532ACF048
:104C100092E09093DE03873284F091E09093DE037C
:104C200088325CF01092DE0308C0873234F0923094
:104C3000A1F3873211F00C94AD2E9091DE03890F11
:104C40008093DC032091DE039091DC03920F90931C
:104C5000DC03022E000C330B4091B2035091B303DE
:104C6000420F531F5093B3034093B2035091DD039F
:104C70008091AD02851B8093AD026091DA03709143
:104C8000DB03FB01E51BF10957FDF395AF01F09341
:104C9000DB03E093DA03803C1CF4805C8093AD027C
:104CA0008091AD0218161CF480548093AD02692FD8
:104CB000092E000C770BDB01A21BB30B9697DCF0DF
:104CC0000EEA12E0FFEAEF2EF2E0FF2EA0E4CA2E79
:104CD000B8E0DB2E89E0B82E95E0A92E2CE0722EEC
:104CE00031E1632E42E3542E44244A9452E1352E9E
:104CF0006EE0262E58C097321CF38091D903082EFF
:104D0000000C990B97FF03C0919581959109209113
:104D1000AF036091AC0270E01091E103EEEACE2E99
:104D2000E2E0DE2E082E000C990BAA0BBB0B5C01F7
:104D3000E1E0AE1AB10800E1F601A281B381308151
:104D400031503C3018F5A41BB50BB7FF03C0B1952B
:104D5000A195B109F4E1AF16B104C0F4C5018A5AB6
:104D60009F4FFC010C942030179784F4D6010C93CC
:104D70002F5FDB01A20FB11DA034B10539F412E39E
:104D800005C014971CF40093AE02F2CFB4E0CB0E32
:104D9000D11CEEEACE16E3E0DE0671F62093AF03F7
:104DA0001093E1038DCF2091AE03203108F0AAC605
:104DB000D8018C9181508D3008F0A4C64091DA035F
:104DC0005091DB03433351050CF49CC68091DC0306
:104DD00088320CF497C612968D919C911397841B80
:104DE000950B97FF03C091958195910905970CF05C
:104DF00089C680E592E00E94F0118091AE038F5F3A
:104E00008093AE03D8013C92829D802D1124F7013E
:104E10008083CA940C5F1F4FF4E0EF0EF11CC110A9
:104E2000C2CF05EB13E039EBE32E33E0F32ED801CC
:104E30002D913C912838B3E13B0771F1F70131978F
:104E40008081281B310987FD3395F8013183208348
:104E50008091DA039091DB03281B390B37FF03C0E5
:104E6000319521953109273431051CF0D8018D92F7
:104E70009C92F70180818F3F49F032979081980F83
:104E8000908361E00E943B16D7018C9341E067EA72
:104E900072E0C8010E9473120A5F1F4FB6E0EB0E6A
:104EA000F11CE3E0093D1E0711F60BE912E02FE9C2
:104EB000E22E22E0F22ED8012D913C912838B3E168
:104EC0003B0769F1F70131978081281B310987FD84
:104ED0003395F801318320838091DA039091DB03CD
:104EE000281B390B37FF03C0319521953109273431
:104EF00031051CF0D8018D929C92F7013297D701B1
:104F00008C919081980F908361E00E943B16F7018D
:104F1000808340E060EB73E0C8010E9473120A5F77
:104F20001F4FF6E0EF0EF11C22E0073A120719F6C8
:104F30000EE612E07FE6C72E72E0D72EE0E7AE2E37
:104F4000E2E0BE2EF8E23F2EA2E04A2EB5E07B2E34
:104F500083E0682E94E0592E22242394D8011396DE
:104F6000ED90FC9014972091DA033091DB038C9143
:104F7000833008F457C1833019F0843039F014C0FD
:104F8000C7010296F801948383830EC0F2EEEF16F8
:104F9000F10444F0C7010297D80114969C938E93B4
:104FA000139702C0F8017082E21AF30AFAE0EF16D2
:104FB000F10494F427EFE2162FEFF206E4F439E15E
:104FC000E3163CEFF306E4F049EDE4164FEFF40688
:104FD0007CF4D6011C9214C058E2E516F10474F07A
:104FE00088EEE81683E0F8065CF4D6015C9208C00F
:104FF000F601208205C0D6014C9202C0F601608203
:10500000F501808181508083811170C063E070E080
:1050100080E090E00E94C310613071058105910528
:1050200071F1623071058105910509F450C0672B5B
:10503000682B692B09F04DC0F2EEEF16FFEFFF066B
:105040007CF4D80115968D919C91169787559F4FAA
:1050500013962D913C91149782179307C4F132C097
:10506000BFE1EB16F1049CF1F80185819681895A24
:10507000910923813481281739074CF10EC0BFE113
:10508000EB16F10464F0F80185819681895A910943
:105090002381348128173907BCF050821AC0F2EE00
:1050A000EF16FFEFFF0684F4D80115968D919C91C1
:1050B000169787559F4F13962D913C911497821701
:1050C000930714F06C9205C0F801708202C0D801F9
:1050D0007C9268E070E080E090E00E94C310DC0108
:1050E000CB010496A11DB11DF5018083F7FE03C01D
:1050F000F194E194F108FDE2EF16F1040CF092C096
:1051000080910001813029F069E170E080E090E059
:1051100004C068E270E080E090E00E94C310672B5A
:10512000682B692B09F07EC080919B0290919C02B4
:105130008838934161F08091A1029091A202883851
:10514000934109F06FC0EE24E394F12C02C0E12CEE
:10515000F12C86E692E00E94F01146E04E9DC001DF
:105160004F9D900D1124DC01A556BD4F7D01129677
:105170003C921297E8EF1496EC93149715963C9294
:10518000D6018C91823069F188F48823F1F0813066
:1051900009F048C0D80113968D919C9114970996F7
:1051A000F701918380832EEF23833CC0833071F11C
:1051B0008430C1F5D80113962D913C9114972B5052
:1051C0003109F701318320832CC0F8018381948158
:1051D0000B96D70111969C938E93ECEF1396EC935C
:1051E00021C0D80113968D919C911497F70191835A
:1051F000808363E070E080E090E00E94C310DC01F7
:10520000CB010197A109B109F7010BC0D801139691
:105210008D919C9114970997F70191838083438224
:1052200001C08383075F1F4FF9E0CF0ED11C29E037
:10523000A20EB11C32E00B39130709F08FCE80E0CB
:105240000E946D162091AF038091AC0290E0820F16
:10525000911D8034910539F48091E103811103C0DF
:1052600082E38093E1038091E103823308F476C006
:105270008F5F8093E1038B3409F070C084E08093EA
:10528000E5036CC000E021E043ED51E065E170E032
:105290008DE290E00E94231C21E04CEC51E060E0A4
:1052A00070E08FEF9FEF0E94231C8091AF039AE084
:1052B000F92E6F2D0E940030192FE82FF0E0EE0F2D
:1052C000FF1FEF5EFE4F4081518121E060E070E002
:1052D00084E090E00E94231CE12FF0E0EE0FFF1F1E
:1052E000EF5EFE4F4081518121E060E070E089E097
:1052F00090E00E94231C21E04AEB51E060E070E066
:105300008EE090E00E94231C8091AC026F2D0E94E1
:105310000030192FE82FF0E0EE0FFF1FEF5EFE4F79
:105320004081518121E060E070E085E190E00E94E1
:10533000231CE12FF0E0EE0FFF1FEF5EFE4F4081D8
:10534000518121E060E070E08AE190E00E94231C3E
:1053500088E00E947C1D81111092E50380910E046B
:105360008EBDEFE0F4E081910DB407FEFDCF8EBD60
:1053700048E0EE30F407B9F70DB407FEFDCF80E04A
:1053800090E0892B09F4D5C80E940000D2C8809112
:10539000D9038F3FA1F481EF898380EF8A838FEE59
:1053A0008B83AE014F5F5F4FBE016E5F7F4FCE01BB
:1053B00003960E94EB1D83EF898382EF09C08F3F24
:1053C00081F07CF08A3009F06EC08BE089838CE03C
:1053D0008A83BE016F5F7F4FCE0102960E94CD1D72
:1053E000C7CA843F71F58BE089838CE08A83BE0154
:1053F0006F5F7F4FCE0102960E94CD1D85EF89839E
:105400008AE016C01F3F09F08FCA8CEF89838BEFAB
:105410008A838AEF8B83AE014F5F5F4FBE016E5F61
:105420007F4FCE0103960E94EB1D8EEF89838DEF97
:105430008A83BE016F5F7F4FCE0102960E94CD1D11
:1054400073CA8A3F09F094CA81EF898380EF8A8307
:105450008FEE8B83AE014F5F5F4FBE016E5F7F4F5C
:10546000CE0103960E94EB1D83EF898382EF8A832E
:10547000BE016F5F7F4FCE0102960E94CD1D8DEF62
:1054800089838EEF8A838FEF8B83AE014F5F5F4FEF
:10549000BE016E5F7F4FCE0103960E94EB1D8BEF26
:1054A00089838CEF95CF813109F08CCA84E08983A0
:1054B00085E08A8386E08B83AE014F5F5F4FBE013C
:1054C0006E5F7F4FCE0103960E94EB1D81E08983C2
:1054D00012E01A8383E08B83AE014F5F5F4FBE0102
:1054E0006E5F7F4FCE0103960E94EB1D8EE0898395
:1054F0008DE08A83BE016F5F7F4FCE0102960E94CE
:10550000CD1D80E189838FE072CA1091D9031130DB
:1055100081F584E38983CE0101960E94151E03E084
:105520000983B2E0FB2EFA821B83AE014F5F5F4F0F
:10553000BE016E5F7F4FCE0103960E94EB1D83E399
:1055400089830A83BE016F5F7F4FCE0102960E945E
:10555000CD1DF9820A830B83AE014F5F5F4FBE0101
:105560006E5F7F4FCE0103960E94EB1DF092E20327
:1055700048CA12300CF050C01F3ED9F484E389832E
:10558000CE0101960E94151E8FEF8983CE010196F0
:105590000E94151E83EF898382EF8A83BE016F5FAD
:1055A0007F4FCE0102960E94CD1D81EF898380EF4F
:1055B0000FCF1F3F09F025CA84E38983CE010196EE
:1055C0000E94151EA3EFFA2EF9821A83BE016F5FA7
:1055D0007F4FCE0102960E94CD1D11EF198302EF7D
:1055E0000A83BE016F5F7F4FCE0102960E94CD1DE0
:1055F00083E38983CE0101960E94151EF9820A83F6
:105600001B83AE014F5F5F4FBE016E5F7F4FCE01C8
:1056100003960E94EB1DACC91A30F9F484E3898328
:10562000CE0101960E94151E0BE009830A831B839D
:10563000AE014F5F5F4FBE016E5F7F4FCE0103969D
:105640000E94EB1D83E38983CE0101960E94151E03
:1056500009830A838CE08B83D4CF1C3009F584E363
:105660008983CE0101960E94151E1BE019831A83BF
:105670008AE08B83AE014F5F5F4FBE016E5F7F4F4D
:10568000CE0103960E94EB1D83E38983CE01019630
:105690000E94151E1983CE0101960E94151E68C92D
:1056A000163009F0AEC984E38983CE0101960E94C9
:1056B000151E12E0198381E08A83BE016F5F7F4F60
:1056C000CE0102960E94CD1D85E0898384E08A8305
:1056D00083E08B832CC01B3F0CF411C1113009F007
:1056E0002AC184E38983CE0101960E94151E7DE0C4
:1056F000E72EE9821A83BE016F5F7F4FCE010296CB
:105700000E94CD1D0FE00983EEE0FE2EFA82BE015D
:105710006F5F7F4FCE0102960E94CD1D82E3898389
:10572000CE0101960E94151EE982FA820B83AE011A
:105730004F5F5F4FBE016E5F7F4FCE0103960E94A9
:10574000EB1D5DC91091D9031130A1F48FE089835D
:1057500080E18A8381E18B83AE014F5F5F4FBE01A1
:105760006E5F7F4FCE0103960E94EB1D8DE0898313
:105770008EE03DC9123094F51F3E09F043CE8CEF08
:1057800089838BEF8A838AEF8B83AE014F5F5F4FF4
:10579000BE016E5F7F4FCE0103960E94EB1D8FEF1F
:1057A00089838EEF8A838DEF8B83AE014F5F5F4FCE
:1057B000BE016E5F7F4FCE0103960E94EB1D82EF0C
:1057C000898383EF8A83BE016F5F7F4FCE0102968C
:1057D0000E94CD1D80EF898381EF2ACE1A3021F4FB
:1057E00085EF898384EF24CE1C3079F485EF89839B
:1057F00084EF8A83BE016F5F7F4FCE0102960E94C5
:10580000CD1D8BE089838AE0E3CD163009F08CC88A
:105810008FE0898380E18A8381E18B83AE014F5FD2
:105820005F4FBE016E5F7F4FCE0103960E94EB1D5E
:105830008DE089838EE08A83BE016F5F7F4FCE014A
:1058400002960E94CD1D83E0898382E08A8311E065
:105850001B83AE014F5F5F4FBE016E5F7F4FCE0176
:1058600003960E94EB1D85E0898384E0C0C81091F7
:10587000D9031A3F09F02FCF84E38983CE01019623
:105880000E94151E8EEF89838FEF8A83BE016F5FA2
:105890007F4FCE0102960E94CD1D8BEF89838CEF46
:1058A0008A838DEF20C0163F09F0ABC884E389835B
:1058B000CE0101960E94151E05EF09830A831B8302
:1058C000AE014F5F5F4FBE016E5F7F4FCE0103960B
:1058D0000E94EB1D82E38983CE0101960E94151E72
:1058E00009830A8384EF8B83AE014F5F5F4FBE0154
:1058F0006E5F7F4FCE0103960E94EB1D15C8143FCB
:1059000091F684E38983CE0101960E94151E15EF5E
:10591000198386EF8A83BE016F5F7F4FCE010296A7
:105920000E94CD1D82E38983CE0101960E94151E3F
:1059300019831A837ECD1131D9F484E38983CE0192
:1059400001960E94151E11E01983CE0101960E9456
:10595000151E8DE089838EE08A83BE016F5F7F4FC5
:10596000CE0102960E94CD1D8FE0898380E13FC861
:105970001F3F09F046C884E38983CE0101960E9447
:10598000151E0DEF0983FEEFFF2EFA821B83AE0179
:105990004F5F5F4FBE016E5F7F4FCE0103960E9447
:1059A000EB1D82E389830A83BE016F5F7F4FCE01C7
:1059B00002960E94CD1DF9820A830B8395CF853014
:1059C00008F05DC038C882E293E00E94F011409177
:1059D000DA035091DB032091D90327FD03C08DE04A
:1059E00090E002C083EF9FEF36E0309FF001319FDF
:1059F000F00D1124EB54FC4F840F951F918380838D
:105A00008091DC03815F82839FEF948327FD02C036
:105A100098EF01C098E026E0209FF001219FF00D53
:105A20001124EB54FC4F27C00F5F1F4F36960630F2
:105A3000110509F410C88081918188389341A1F73C
:105A400082E293E00E94F01186E0809FF001819F46
:105A5000F00D1124EB54FC4F8091DA039091DB039D
:105A6000918380838091DC038D5E828391E09483B7
:105A70009091DD03990F938385830C942B25E5EB9F
:105A8000F3E000E010E0D7CF8CE792E00E94F01145
:105A90009091DE0388E2891B8093DC032091DA0376
:105AA0003091DB03205F3F4F3093B1032093B0036D
:105AB000082E000C990B04969093B3038093B203C5
:105AC00086E08093B4031092DE038091E10381119C
:105AD00003C081E08093E1039091AF038091AE0316
