:100000000C942B100C9453100C9453100C9453100C
:100010000C9453100C9453100C9453100C945310D4
:100020000C9453100C9453100C943D1F0C94AC1F63
:100030000C9453100C9453100C9453100C945310B4
:100040000C9453100C9453100C9453100C945310A4
:100050000C9453100C9453100C9453100C94DE21F8
:100060000C9453100C9453100C9453100C94531084
:100070000C9453100C9453100C9453100C94531074
:100080000C9428220C9453100C9453100C9453107D
:100090000C9453100C9453100C9453100C94531054
:1000A0000C9453100C9453100C9453101C0790B8DC
:1000B000AC5CE73AD7B92E77B9739DEB5C272B3B45
:1000C00002011C0790B8AC5CE73AD7B9CE75EA5B81
:1000D0005DD7D59DACEC08041C0790B8AC5CE73A42
:1000E000D7B9CE75AE739DEB5CA754FDB70D6D0906
:1000F0000FD8D2FD4594764E8EA8ED564925152988
:10010000090F587B55B6D2CEC930A5A4924A6E6766
:1001100005090F643A75297969554AE5F3312AA929
:100120006474E9F476BB05090F5C3A776D2FAD4A2C
:10013000A9542A3DE5763BDB76ABEC7609320FF825
:10014000D2952C5925D3254BA54A96AE5495AC5241
:10015000952E5975F755BA6495AA56A7D3E9BEAA44
:10016000AAAAFA74BB2A55E54E97ACBAFB2A5DC918
:100170009255325DA92A59A52A5DB2AAAA4A5568A4
:100180004AA7D3E9743A9D4EA7D3E9743A9D4EA786
:10019000D3E9743A9D4EA7D3E9743A9D4EA7D3E9AB
:1001A000743A9D4EA7D3E9743A5A320FD37D555510
:1001B00055F5E992555555AAD2ADAE5455AAD2ED92
:1001C000AA54953B5DB2CE952C5DB24A55ABD3E9AE
:1001D000745F5555557DBA5D95AA72A74B56DD7D66
:1001E00095AE64C92A99AE5495AC52952E59555581
:1001F000A52A9D4EA7D3E9743A9D4EA7D3E9743A38
:100200009D4EA7D3E9743A9D4EA7D3E9743A9D4E0B
:10021000A7D3E9743A9D4EA7D3E9743A9D4EA7013E
:10022000320FF8D2EDAA4A55325DA92A59A52A5DA6
:10023000B2EAEEAB745F5555557DBA9225AB643A80
:100240009DEEABAAAAAA4FB7AB5255EE74C9AABB92
:10025000AFD2952C5925D395AA9255AAD225ABAAEF
:10026000AA5485A6743A9D4EA7D3E9743A9D4EA729
:10027000D3E9743A9D4EA7D3E9743A9D4EA7D3E9CA
:10028000743A9D4EA7D3E9743A9D4EA7A305180F63
:10029000E8729D9A301DD3AE3ECA4AA972714515C7
:1002A00067CFAC64E5B7DB09D3B95EA552BD4D5647
:1002B000325DDB55AFD2B5DD4E964EC706180F64E2
:1002C000259592CA29A954E72EE99C3A75EE72B792
:1002D0002B59DD755D529DAEAC92CE4957EBFC7645
:1002E000ABA4D2DBEDAE92CE39279574CE29E79C34
:1002F00073CE39E7DC769B8E16180F7436BB544EDE
:100300002AB95572BBDD6EB7DBAD924A6EB79F72EC
:10031000CE395911669554D239E79C93CA39A9EC64
:1003200052D9ED52D9ED5249A54A39E79C734A6E2C
:10033000D3180F68B3DB9D53AA94B29773CE295597
:100340004AD54EB9BB3AA54AA9724A2A79C97DC491
:10035000E9A592CE29E99C735249259593CE39E5BA
:100360009C54525D4E2AE72AB9DD4607180FE87201
:100370009D9A301DD3AE3ECA4AA97271451567CF0A
:10038000AC64E5B7DB09D3B95EA552BD4D56325D0D
:10039000DB55AFD2B5DD4E964EC706180F642595D6
:1003A000724EB9EDAAB697ACDCAA739DEBF4577DFB
:1003B00075574CE988B24A3A59EBFC76AB747ABB74
:1003C000DD266BD739A9A4DD29A99C73CE2E95CC47
:1003D0006ED3D102180F58D3C9EDD2B94EE7B29FF0
:1003E0004AA5AA52954D4795FAD447B61D41DBADB3
:1003F000924A3AA99C734E3A77E9DCE59CEA9574F7
:10040000CA39B75576A9643A3A180FE8D3E95C7A45
:100410009DAE74AE73E9645CB9CEC5970E65E9AC68
:1004200092955476E9DC2595DC279554CE39E7B6CC
:1004300097AB643A1D2D0817CA27A39B2DA26C0801
:10044000CD4614DB74C97C0E081798F291CD970D38
:10045000BDD9F826CB47060807CA27A39B2DA26C57
:1004600016080798F291CD978D0C0307EE5455AA04
:10047000933B0307AE5C55AA2A572903074AF7AAFC
:10048000924B030756AE2A55954D01030752A5AA74
:100490005255A94E0103075E5652CA1C0307AE5CB3
:1004A0002A5595AB140307EE54AFAA72DD030798E3
:1004B0003A2575030307562E954AE594022517A0A1
:1004C000A574769BCEA6B3DB74369D55329D4D56F2
:1004D000B065D0292517A0A574769BCEA6B3DB7492
:1004E000369DDDA6B39DAB1096CE6ED3D974769BA8
:1004F000CEA6B3DB743A681D2517A0A5743A14E69E
:10050000630E69E9EC369D4D67B7E96C3ABB4DA7C0
:100510008386824E012517E0C26CE09E002517A05D
:10052000AB743AB4259554909172CE3925951C8BB5
:10053000DBEDAE9249E75CD0507AFBA97FBBFDD4DE
:10054000524925556D97DBA592DBED363402251710
:10055000A0AB743AB4259554909172DB6C3AD52BCC
:10056000E7E418DB6E77954C3AE78286D2DB4FFDE5
:10057000DBEDA7964A2AA96ABBDC2E95DC6EB7A1F3
:10058000112517E0F3747A9DCEA7D3EB743E9D5EE0
:10059000A7834901251730954EAFD3F9747A9DCEC4
:1005A000A7D3EB74F0653ABD4EE7D3E9753A9F4E99
:1005B000AFD3C1A4251730954EAFD3F9747A9DCE31
:1005C000A7D3EB74E0BB002517A06655BB4A479F35
:1005D0005E3A2587CAB6DBED36BAB45452F53638E2
:1005E000082517A06655D755BB52524927D5E9A50E
:1005F0005372A86CBBDD6EA34B4B25556F838300F4
:1006000025171094CEA7D3EB743E9D5EA7F3E9F4B3
:100610003A1D7C994EAFD39DEC5C7A9DCEA7D3EB6F
:1006200074305F3EEC0125171094CEA7D3EB743ED7
:100630009D5EA7F3E9F43A1D7C994EAFD3F9747A25
:100640005DC97C3ABD4E07830225171094CEA7D30F
:10065000EB743E9D5EA7F3E9F4706C3E18341FF610
:10066000002517400E65836A012517D09A0E4DE9C3
:1006700020B3D457B9F9E20F6DB9569F8E2E9DDD88
:100680008EF7747ABBDD2AA9A473B5AB5D292595D5
:100690005DF5AA94924A2AA9E4769B0E9D2517D06F
:1006A0009A0E4DE920B3D457B95576575B2595740A
:1006B000AA14CA72AD3E1D5D3ABB1DEFE9F476BBCC
:1006C000555249E76A57BB524A2ABBEA5529259534
:1006D0005452C9ED361D3A012517A0A9743AF832D3
:1006E0009D5EA7F3E9F43A5DD94AA68333F3492521
:1006F0001710954EE7D3E9753A9F4EAFD3F9747A48
:100700009D0EBE4CA7D7E97C3ABD4EE7D3E988B22F
:10071000C198251710954EE7D3E9753A9F4EAFD390
:10072000F9743AD8381F0C9A4F022517C02A6583EE
:1007300031012517D0944E67B7DB753A1DDA82A3D5
:100740007E65955DAFD3E975F80A4D69A5CA5DE888
:100750004C87BF743ABDDD6E95DDAE77B5AB9D5469
:1007600052DDEA5FF5AA94924A3AE7A4924A2AB97E
:100770005452C96DB42517D0944E67D3E97C3A1D05
:10078000DA82A37EA55AFDBFBA5D29554A49E7E43E
:10079000580A4D69A5CA5DE84C87BF743ABDDD6E45
:1007A00095DDAE77B5AB9D5452DDEA5FF5AA949224
:1007B0004A3AE7A4924A2AB95452C96DB42517603F
:1007C000A9743E9D4E074FA6D3E9753ABD4E57B268
:1007D000230CBE4C03251730954EA7D7E9F43A9D5C
:1007E0005EA7D3F9743A9D4FA7D3C193E9747A9D5C
:1007F0004EAFD3E918B34199251730954EA7D7E9E5
:10080000F43A9D5EA7D3F97490733EC2E0CB3425D1
:1008100017402A658332012517D0944E67B7DB75E0
:100820003A9D0E4DE9743A38E957A7945DA7D7E988
:10083000747ADA74F85BB5BAED3A9D4EA7D3D9ED68
:10084000763CA6D3E9F476BB5D6FB7DBA573CED556
:10085000AE76BDBAD5E5B6DBED76BB4DA7A30725D1
:1008600017D0944E67D3E97C3A9D0E4DE9743A381F
:10087000E957BFFA7FD5ABDB9552A55429E56C6CDF
:10088000E9F0B76A75DB753A9D4EA7B3DBED784C9E
:10089000A7D3E9ED76BBDE6EB74BE79CAB5DED7A97
:1008A00075ABCB6DB7DBED769B4E470F251760A37D
:1008B000747A9D4EA7832FD3E9743A9F4EA72BD904
:1008C000C9742A950BDE04251728D3E97C3A9D4E7E
:1008D000E7D3E9743A9F4EA7D3EB743A1D7C994E47
:1008E000A7D3F9743A9DCEA72B39DC09251728D355
:1008F000E97C3A9D4EE7D3E9743A9F4EA7839BF378
:1009000011E68337012517C02565833B012517D0E4
:10091000954EA7D3A12F1D44F5E7D6DB753A9D5E12
:10092000A7A30D6F5B75DBED3A9DCE6EB74B25959A
:100930001C81E9743ABDDD6EB7EBED76BB5D3AE73D
:100940005CED6A57BB4AA6B7DB6D3A1DDA00251786
:10095000D0954EA7D3A12F1D44F557AFFED4A75471
:1009600029554AB5FA94AA5D451ADEB6EAB6DB7592
:100970003A9DDD6E974A2A3902D3E9747ABBDD6E5F
:10098000D7DBED76BB74CEB9DAD5AE76954C6FB7C2
:10099000DB743AB401251760A5743E9D4EA7D3E9D8
:1009A00074F0643A9D4EA7D395AD643AAE204C25C1
:1009B00017A8D2E97C3A9D4EA7D3EB743A9D4EE737
:1009C000D3E97C3A9D4EA7D3E9E0C9743A9D4EA77E
:1009D000F3E974658334012517A8D2E97C3A9D4E6A
:1009E000A7D3EB743A9D4EE7D341D1F998833001F8
:1009F00025174029658334012517A0A3743AA82937
:100A0000AB6E574965D3E9743A9DDEAED3A12DFD97
:100A1000A94F492595DD6EB7DBED5239E79C1C41A6
:100A2000E9F476BBDD6EB7EBAC92CA6EB7DBED3A9C
:100A3000E99C73B5AB5DED6A974EA7D3E974680284
:100A40002517A0A3743AA829ABEEBAEA55AB52AA6F
:100A5000942AA5CADDEA56DFEA92E9D096FED4A729
:100A6000A492CA6EB7DBED76A99C734E8EA0747A01
:100A7000BBDD6EB7DB75564965B7DBED769D74CE91
:100A8000B9DAD5AE76B54BA7D3E9743A3401251758
:100A900020A7743A9DCEA7D3E9743A9DCEA7D3E997
:100AA000E0C7A88332012517A8D2E9743A9F4EA760
:100AB000D3E9743A9F4EA7D3E9743A9DCEA7D3E900
:100AC000743A9DCEA7D3E9E0CDA04D2517A8D2E971
:100AD000743A9F4EA7D3E9743A9F4EA7D3213EF8AC
:100AE00032E6E04C2517C02B056D022517D0954E38
:100AF000A7D3E9743A1D5D76BBDD6EB7EB60A26FDC
:100B0000B5DEAED3E9743A9D4E4F9B4EA7D331E686
:100B10003AE79C73CE492595545239259573CA39C5
:100B200085AB743A9D4EA7D3E9F476BBDD6EB7DB97
:100B3000ED76BBDD8E652517D0954EA7D3E9743AC7
:100B40001D5D76BBDD6EB7EB60A26FB5EBFF53AA00
:100B5000942AA54AA952AA94AA5D7ADA743A9D8E7B
:100B600031D739E79C734E2AA9A492CA29A99C536C
:100B7000CE295CA5D3E9743A9D4EA7B7DBED76BBD1
:100B8000DD6EB7DBED762C03251720A7ED369BCE67
:100B90006ED3D974769BCEA6030D052517D09E4E35
:100BA00067B7D9ED369BCE6ED3D974769BCEA6436C
:100BB0005D3ABB4D67D3D96D3A9B4E07DD032517D0
:100BC000D09E4E67B74156E9EC369D4D67B7E96C4C
:100BD0003A1D740F2517A0A5743AB8D08DA574845A
:100BE000A582E73A574A955252CD964E2BB95D876A
:100BF0004D2517A0A5743AB8D0AD76CE29E7E4AA62
:100C00005711960A9EEB5C29554A49355B3AADE48B
:100C1000761D3601251760A7743A9D4EA7D3E97457
:100C2000769B4EA7D38179022517E8D3E9743A9DC4
:100C3000DDA6D3E9743A9D4EA7D3E9743A9D4EA739
:100C4000D3D96D3A9D4E07E6092517E8D3E9743AE2
:100C50009DDDA6D3E9743A9D4E07E20B2517A0A3AC
:100C6000743A1D9CB793DBD1944E274B0DB72D954D
:100C7000543234A5955C87652517A0A3743A1D9C52
:100C8000B793FFA7A4924A2AA95429D5AB64A9E136
:100C9000B6A5924A86A6B492EBB00C251720A7748D
:100CA0003A9D4EA7D3E9743A9D4E07260A25179020
:100CB000954EA7D3E9743A9D4EA7D3E9743A9D4E59
:100CC000A7D3E9743A9D4EA70313052517C8D3E9A6
:100CD000743A9D4EA7D3E9743A9D4E07E60B25174B
:100CE00060A3ED763B94B793E9F8D2E9746C952C48
:100CF0003594B6DD8EB5ED766C03251760A3ED76E1
:100D00003B94B793A96F25952AA54AA952AA94FDA9
:100D10004A961A4ADB6EC7DA763BB601251720A938
:100D2000743A9D4EA7D3E9743A9D4E07060A2517DB
:100D300090964EA7D3E9743A9D4EA7D3E9743A9D95
:100D40004EA7D3E9743A9D4EA70303052517909546
:100D50004EA7D3E9743A9D4EA7D3E97460BC002531
:100D600017C0C701251760A5ED763B94B793E978C6
:100D7000D3F125934AC16ADBED762C6DB7DBB10C5C
:100D8000251760A5ED763B94B7BB53DF4A2AA954DB
:100D900029558A2B99540A56DB6EB76369BBDD8EE1
:100DA00065251720A5743A9D4EA7D3954CA7D3E986
:100DB000743A1D1418EC0B2517C8D3E9743A9D4EEC
:100DC000A7D3E9743A9D4EA7D3E9743A9D4EA7D3B1
:100DD000954CA7D3E9C040012517C8D3E9743A9DC3
:100DE0004EA7D3E9743A9D0E81C1A041BE2517A03C
:100DF000B9C053012517D09FDD6EB7EBA0B66F5772
:100E0000B1A7D3E96895744E3925974A4152E9ED67
:100E100076BBDD6EB7DBED76BB1DEB2517D09FDD16
:100E20006EB7EBA0B66F579DEAA5924A9552A554AE
:100E3000AFA255D239E5945C2A0549A5B7DBED761A
:100E4000BBDD6EB7DBED76AC03251720A7743A9DAA
:100E50004EA7D3E96D25D3E9743AB8311FDC0A25D2
:100E60001790954EA7D3E9743A9D4EA7D3E9743AEB
:100E70009D4EA7D3E9743A9D4E57721B182825172B
:100E800090954EA7D3E9743A9D4EA7D3E974F8CB59
:100E90000783E6835B012517A0BF6C20A2002517FE
:100EA000A0A1EC76BBDDAE83BABE5D2547573A9D67
:100EB0004EC79873CE39A79C534E39A720A1F4761C
:100EC000BBDD6EB7DBED76BBDD6EB7631B2517A010
:100ED000A1EC76BBDDAE83BABE5D75FF5249A54A73
:100EE000496557E9743A1D63CE39E79C724E39E57E
:100EF0009C8284D2DBED76BBDD6EB7DBED76BBDDAD
:100F00008E6D251760A1743A9BCEA6B3E96C3A9B0F
:100F1000CEA6D3A97C30693E58132517D09D4E67C5
:100F2000D3E96C3A9BCEA6B3E96C3A9B4E87AB6C87
:100F30007CE96C3A9BCEA6B3E96C3AE81F2517D042
:100F40009D4E87FB7C684B67D3D974369D4D67D324
:100F5000415FF9604D251720C96CA098002517A0A6
:100F6000A1743A1DB6B7DBB1B8545239E79C734A45
:100F70002A1B4273CE39A79C73CE29E79C724A2A5A
:100F8000E714DA92CEB9DAD5AE769DEB5CA73E9542
:100F90004AF5FFA73EB5545295924B2595535249B9
:100FA00025B7DB6DE8032517A0A1743A1DB6B7DBA2
:100FB000B1B84C67D3E96C3A752E5CE69C734E3938
:100FC000E79C53CE39E59454CE29B4259DBDDCA5CC
:100FD0005429D5ABCE75EA53A954FF7FEA534B256C
:100FE0005529B954523925955472BBDD863E2517D3
:100FF00060A1743ABB4DA7B3E9743A9B4EA7B3E91D
:101000004A762EC8331FAC092517D09C4EA7B3E9EA
:1010100074769B4E67D3E974369D4E67D3E9748C22
:10102000D9C8D2E96C3A9DCEA6D3E9400301251771
:10103000D09C4EA7B3E9B09D0F65E974369D4E670D
:10104000D3E974F0583E4813251720C96CA09800C6
:101050002517A0A1743A1DBAB3DBD19754CE39E756
:101060009C734A2AA9E4F84C2AA9A472CA39E794C5
:1010700054CE29E79C5348DB7EEA53AA94EA55AF45
:101080007AD5FF9FFA56B7EA9554CED576A9A492A1
:10109000DBA592DBED762C022517A0A1743A1DBAD0
:1010A000B3DBD1975C6ED3E96C3A954A353E934AEF
:1010B0002AA99C72CE39259573CA39E714D2B69FF6
:1010C000EBDCA554AF7AD5ABFEFFD4B7BA55AFA4CD
:1010D00072AEB64B2595DC2E95DC6EB763112517E5
:1010E000909FCE6EB7E9743A9B4EA7B3E9743ADB92
:1010F000B9542A68341FA4092517D0944EA7B3E920
:10110000743ABB4DA7D3D9ED369D4E67D3E97436FB
:101110009D4E67D3E9A8634CA7038D042517D0948F
:101120004EA7B3E9743ABB4DA7D3613D1FC6D2E9C0
:10113000E0C17C9026251720C9C034012517B0BE18
:10114000DD6EB7DB753A9D4E87C5ED3A6C2D9592F5
:10115000DBED769B4E87B5743A9DBDDC65B7BBCAA7
:101160005DEE729792CA39A7A492E16D9DAC5DE7DE
:101170003A57BBDA6EB74B25974A2AA9A492DBED02
:1011800076BB4DA7D3E9D0082517B0BEDD6EB7DB1F
:10119000753A9D4E87C5ED3A6C2D95BAFF4F7DEAA5
:1011A00053B7BA942A85B1743A9DBDDC65B7BBCA02
:1011B0005DEE729792CA39A7A492E16D9DAC5DE78E
:1011C0003A57BBDA6EB74B25974A2AA9A492DBEDB2
:1011D00076BB4DA7D3E9D0082517E0A0ED769B4E4E
:1011E000A7D3E974369D4EA7D3DB4AA6D3C195F9A0
:1011F0007C902625176C3A9D4EA7B3E9743A9D4E14
:10120000A7D3E9EC76BB4DA7D3E9743A9B4EA7D39D
:10121000E9743A9D8E28304D25176C3A9D4EA7B340
:10122000E9743A9D4EA7D3E9743A1D96F341A5F9A6
:10123000204D251720C9C034012517D09DDD6EB77C
:10124000DBED769D4E87CDED3A242D9592EB743AE9
:101250001D7B3A1D6D3A9DCE5EEEB2DB5DAD6E75C7
:10126000B9CB392595734E492543D73ABDDD6EB7C5
:10127000DBED76BBCD6EB7DBED76BBDD6ED3E9740F
:101280003A74022517D09DDD6EB7DBED769D4E8753
:10129000CDED3A242D9592BF2AA54AA952AA945C75
:1012A0002AA9543A1D6D3A9DCE5EEEB2DB5DAD6E5D
:1012B00075B9CB392595734E492543D73ABDDD6EB7
:1012C000B7DBED76BBCD6EB7DBED76BBDD6ED3E97C
:1012D000743A7402251720A1743A9D4EA7D3D9748D
:1012E0003A9D4EA7D3CBCEA5833DF3C19925177464
:1012F0003A9D4E67D3E9743A9D4E67D3E9743A9D9F
:101300004EA7D3E96C3A9D4EA7D3E96C3A1D6320F2
:101310009A002517743A9D4E67D3E9743A9D4E673B
:10132000D3E9D09F0F2ACD076702251760C9403443
:10133000012517B0BEDD6EB7EB74684E87ABA572A2
:1013400072BB4EA7D3E974ECE9743A1D63AE734ED9
:10135000492595734E49259554CE29E7941C4BE9B0
:10136000F576BBDD6EB7DBED52C9ED76BBDD6EB752
:10137000DBED76BB1DBB2517B0BEDD6EB7EB746829
:101380004E87ABA572F7FF29554A9552A5542955AA
:101390004AD5D4E9743A1D63AE734E492595734E10
:1013A00049259554CE29E7941C4BE9F576BBDD6EB3
:1013B000B7DBED52C9ED76BBDD6EB7DBED76BB1D5D
:1013C000BB251720A5743A9D4EA7D3E9743A9D4ECC
:1013D0006F2B19249A0FCA042517C8D3E9743A9DB4
:1013E0004EA7D3E9743A9D4EA7D3E9743A9D4EA710
:1013F000D3E9743A9D8E38F04C251748D3E9743AF6
:101400009D4EA7D3E9743A9D4EA7C3733EA8341FDF
:1014100094092517A0C9C033012517D09FDD6EB7E9
:10142000DB7550D2B7BAE4769D4EA7D3E974B4E920
:10143000743A9D8E299D73CE39E79C73CE29A9A459
:10144000726EA99C1C59E9ED76BBDD6EB7DBED76BB
:10145000BBDD6EB7DBED76BBDD6EC72E2517D09FEB
:10146000DD6EB7DB7550D2B7BAEEFF53AA942AA54A
:101470004AA952AA76E968D3E9743A1D533AE79C1F
:1014800073CE39E79C535249E5DC523939B2D2DB8D
:10149000ED76BBDD6EB7DBED76BBDD6EB7DBED76F3
:1014A000BBDD8E5D3F3F801D2A9D0E5ECFDDD55D8D
:1014B000C794AECED5E52E1D7C9DD6E9F49DEB9468
:1014C0004EA70BDA063F3F800E2AA9A4924A2AA90A
:1014D000745038F2D24ADAE1698CC2D63F3F8015A7
:1014E0002A9D0EE24FDF3259B2AE64E5B6B57552B1
:1014F000D97456B9CB5D684AA7838F955432BAB474
:101500004EA7EF5CA7743A5DD0263F3F800C4A4956
:1015100025955452E9743A1D3CBEB5DBE9B7EBB4EE
:1015200092CE39A7A4924A2AA9D3D9ED76BB1DFE43
:1015300075CE39E79CDB6214B6043F3F801D2ABD9F
:101540000DC28F362D5DE5A48A382D5D252B2755DC
:1015500008DA3AA96C3AAB9C73232E9D0E4DE974C0
:10156000F0A8924AA6D34A2AE4A5753A7DE73AA59F
:10157000D3E9828E003F3F80144A4925955452E9B1
:10158000743A9D4E075F6FB7DBADDD6EB7DBD74AB0
:10159000EA743A9D4EA7E89C934A2AE99C734A2A2A
:1015A000A9A47268DA6EB7DB753ABBDD6EB7C39B70
:1015B000CE39E79C73CE39E79CC3D516A3B0103F54
:1015C0003F80152ABD0DC20F4D69E92A2755084BEA
:1015D0004B57C9CA491522B74E2A9BCE2AE7DC8849
:1015E0004DA743533A1D3CA9A492E9B4920AB969A4
:1015F0009D4EDFB94EE974BAD0043F3F800C4A4992
:1016000025955452D1A5D3E9743A1DFCBCDDCEBA60
:10161000B5DBED76FBF44AEA743A9D4EA7D0E69C22
:101620005452492595545249259543E376BBDDAE86
:10163000D3D9ED76BB1D5E74CE39E79C73CE39E706
:101640001C2EB71865071C0F90B8AC5CE73AD7B9E9
:10165000CE75AE739DEB5C272B3B0E77B9EABFAE20
:10166000EEEEDF6E3B99BDD5B6DDD9736DDB9DBD6A
:10167000D5B693D9ED7F7757D77FE5722B1C0F90A6
:10168000B8AC5CE73AD7B9CE75AE739DEB5C272B4F
:101690003B0A3B95CBADAAEBBAFEF3D9CB6D7B975A
:1016A0003DD7B6DDD9736D7B97BDDC36DF7F5DD767
:1016B00095DAE552DDD800C200AC00C200D8001CAB
:1016C0000F90A89C5352492595545249259554D2C0
:1016D00039A930E894DD066F65B7CA0D0A0FD097B7
:1016E0004E47B44C975295545249252F77B9CBA504
:1016F000011D0FE4B672DB4E5DAEFFAA5B7575ADE2
:10170000BAAB5E55B29295AC6425D3EDBA52B5EB47
:10171000EA5B7D95EAD5253BB7AEE444924AAAAA96
:1017200094ACA452A5B6A974E52ED79125AB3B176E
:1017300055FAF2ABD4AD642555554A52492A1D0FCE
:10174000E4B672DB4E5DAEFFAA5B75D56DAB7A5B1E
:10175000AA2A5595AC64252BD9BAAA6AD755AAD519
:1017600057A95E5DB273EB4A4E24A9A4AA4A495711
:1017700039E72AA9CA75EA76E974ED6A57BBECDA4B
:1017800029A9AA52D2554EAAAA94A492541D0FE494
:101790005639E79C924A6EB7E9D09A4E6FB74A2AFB
:1017A000E99C7352C989A4924A2AA9642595545286
:1017B00049252B59C94A2AA9E476ABA49295DC2A7B
:1017C000A964259554524925A9001D0FE45639E70F
:1017D0009C924A6EB7E9D09A4E6FB74A2AE99C7339
:1017E00052C989A4924A2AA9A4924A2AA9A4924A2F
:1017F0002AA9A4924A2AA9A4924A2AA9A4924A2AC6
:10180000A9A4924A2A49052002AA013D017F1FC0CE
:1018100023795F55DD555595ACAAAAAAAAAAAAAA0A
:10182000AAAAAAAAAA40A9D9B3DB4FBDEA539FFA34
:10183000D4ABBE95FDD4AB3EF5A94FBDEA53DBED6D
:10184000AB5EF5AA57BD6ABBFDD4AB3EF5A94FBD53
:10185000EA53DB4FBDEA539FFAD4AB3EB54E5B680B
:101860002E9D4D67D3D974106C365BB96A55E52A45
:101870005BD5D5A9AAAE4E557575AAAA2B5BD5D551
:10188000A9AAAE4E557575AAAA2B5BB94A5DB5AA31
:101890005555AE5655AEB2555D9DAAEAEA54555718
:1018A000A7AABAB2555D9DAAEAEA545557A7AABAA3
:1018B000B295AB5655AEB295CD27D3F9743E9D4F38
:1018C00087C2EDB29295EB5CA752A9543A9D4EA700
:1018D000D3E9743A9D4EA7D3E9743A9D4EA7D3E954
:1018E000743A9D4EA7D3E9743A9D4EA7D3E9743A52
:1018F0009D4EA7D3E9743A9D4EA7D3E9743A9D4E05
:10190000A7D3E9743A9D4EA7D3E9743A9D4EA7D365
:10191000E9743A9D4EA7D3E9743A9D4EA7D3E97472
:101920003A9D4EA7D3E9743A9D4EA7D3E9742A9500
:101930004AE53AD7C94A5676BB023F07D0145D6CD8
:101940009329BAD8A60BBDD14517FA639B6DBAE8A7
:10195000C21B060798964E3AE5E45C0607A8B2CA91
:1019600049A76C5CB404AD04A5049C0495048B04E5
:1019700082047B0472046A04040798B2D24506020A
:1019800008D4D205087F7F3E1C084120FE0105F1E6
:10199000F1F111D1B1D111F1515151515151515177
:1019A0005151515151510000FF00007F7F09090F33
:1019B00006007F7F19396F46007F7F49494141000A
:1019C000266F49497B3200266F49497B32FF000070
:1019D000FFFFFFFEFFFEFF0279CD95A5CD79011136
:1019E000111101F9F901010000FF00007F7F0909D1
:1019F0000F06007F7F40404040007C7E0B0B7E7CCA
:101A000000070F78780F0700000000000000FF00BB
:101A1000001F3F3F33333333333E36363E363E3698
:101A20003E36363E36363E360000FF00003E7F41F1
:101A3000417F3E007F7F0E1C7F7F00000000000082
:101A40000000000000000000000000000000003F57
:101A500040504040407846414159594141414159E7
:101A600059414141414141414100007F0000010194
:101A70007F7F0101007C7E0B0B7E7C007F7F09094C
:101A80000F06007F7F49494141000000000000002F
:101A900037000A0000000200210006000080C00D8F
:101AA0000A0000000200B8070A00000002009704C4
:101AB0000A0000800102040810204080D5F08D1437
:101AC000A1C881CFD9F1AF200024174A67B75B6660
:101AD000BB4DC7ABA373DBED76BBD2D111EA08FFD8
:101AE000FFFFFF4F7D2A1D9792CA39F7FFA94F6D5F
:101AF000B7DB74942BE79C723A1DEFCA39A71C5FC1
:101B0000CE39B9FDFFFFFF57BD725249ADA4B2FFF8
:101B1000FFFFFFA73EB54D4769974AAA743ABDDD5E
:101B2000DAA59294524965ED76BBDDA6A472CE3952
:101B3000E0060A000000020017040A00000002008C
:101B4000E0060A000080B801080000000200F7006B
:101B50000800000002009300080000806E000A00E8
:101B6000000002004100060000000200F70007002C
:101B7000008037000A0000000200A5000B000000F2
:101B800006001000070000000300DC000F0000004A
:101B90000C007B000900000007006200100000003C
:101BA0000800AF000500000008000B02080000005C
:101BB000020057000D00000005001C000D00000091
:101BC000080037000F0000000200A5000B00000015
:101BD00006001000070000000300DC000F000000FA
:101BE0000C007B00090000000700620010000000EC
:101BF0000800AF00050000000800410008000000D8
:101C000002002C000D00000005001C000D0000006B
:101C10000800100006000080B8010A000000020061
:101C20000601060000000200DC0307000080E00659
:101C30002800000005001704280000000500270503
:101C40002800000005002006280000000500008094
:101C50002517D09D4E67B7DBED76BB4EA7D3E99035
:101C6000A6A4924A2AA9B0B4734A2AB9DD6ED3A1B8
:101C70007DBBDDA663CD6E97CA714B65476F3A9DFC
:101C8000CE6EB74B259554CE39E79C924A2A39B689
:101C900000090F28B34AF175CEADD751A6934A6E0D
:101CA000954E4706090FBC93B5CE1D57E7DC7A1D4C
:101CB000653AA9E456E974647F3F80BE2874459F65
:101CC0004EA7D3A1399D4EA743573A9D4E87AED01C
:101CD000157D3A9D4E87AE743A9D4EA7A34FA7D36C
:101CE000E920585AA79CDCA69493D311AB5BDDABDB
:101CF000C83AA54220B3DC2AE994B3D111ABCBDDBD
:101D0000ABF8D244B42BAB9C72B444C4EA72F72A49
:101D10009D558E8B78D5AB5EF59FDAC645AC2E7798
:101D2000CF583928D5392567DD2AE9A4E272CE39A2
:101D300067B74BE59C5372A2EC52492595DCC6B6B9
:101D400055D239279573CE396563734EC9D99D53E2
:101D50007236E7949CDD392567734EC9B1B755D209
:101D60004925955452C96D6CCE29397B7AABAC921A
:101D7000CA29B90D68C8003F0F9854A9AA54292A46
:101D8000A952294925754A524995965452A5720A75
:101D900053E99225AB642148AA544A524995968842
:101DA0004A97AC52D5EA1024552A25A9A4AA6474EE
:101DB000525532C82C9D4EA7437F3A9D4E87767F61
:101DC0003F80F6289D4EA7D3D1A6D3E9743ADAD046
:101DD00018BAA24FA7D3E9D0954EA7D3E974B4E9B6
:101DE000743A9D4E07228878D5AB5E95DAE6B25BF1
:101DF000661B1F2DC268575639E5688988ED76CB7A
:101E00009726CA6EB7CC363EE255AF7AD57F6A1BAD
:101E1000E2B24B2595B2D1392595DC06053BA7E406
:101E200088CA2E9573CE3927B7B129E99C934A2ADF
:101E3000A9E43636E7949CDD392567DB2AE9A492CC
:101E4000CA39E79C9263C9392567DF2AE9A4924A17
:101E50002AA9E436AC2AB90D68CC00370FD325ABDC
:101E60004A952C444955954A4525552525952A5589
:101E7000952A45A5B4520A85E9925555952C0449F1
:101E8000999454525552524955C99B4AAA544E31BD
:101E9000A5D3E974D05B3A9D4E073D01600FB65162
:101EA0003A259D934ED9E86C74524925D5363A2689
:101EB0001BA35452499FDE32D9189D734E31A5970A
:101EC00054363A8C6597D4721B918D71BB5DAACB49
:101ED000E5B24B25A9E536221BE376BBFD56978B71
:101EE000CBC6A8A492336D95C39092CE49E7A47255
:101EF0004E49A76C645239A7C8A5724E9129E99C36
:101F0000944A2AE79454CE2932A99C53329D4E47D5
:101F1000EF9C54522AA9A492DB88B24BA5A4924A02
:101F2000CA6D645239A7902895738A5C49E7A45416
:101F300052492595DC462695738A2CBD5556592560
:101F40009553729B050000CC01EE0175000000BBAB
:101F50000072013E0000000700EE017D0000003E1F
:101F6000004B02030200002E00EE011302000027C6
:101F7000004B027D000000AB00EE012E0000001FB0
:101F8000004B02750000003E00E4020B0200002E30
:101F9000004B020B0200001F00E40275000000BBB2
:101FA000004B02360000000F00E4028400000036FF
:101FB0000070030B0200002700B801FB010000368F
:101FC000004B0275000000B300B801270000002E8E
:101FD000004B02750000004600E402E803008008A0
:101FE0000B000202020000090400000102020000CE
:101FF0000524001001052401010104240206052422
:102000000600010705810310004009040100020ACF
:10201000000000070502024000000705830240009F
:10202000000403090412010002EF020140412336BB
:102030008000010102030141726475696E6F204CDA
:102040004C430041726475696E6F204C656F6E6120
:1020500072646F00892211241FBECFEFDAE0DEBF69
:10206000CDBF12E0A0E0B1E0E4E9F4E602C00590E3
:102070000D92AA35B107D9F728E0AAE5B2E001C070
:102080001D92AE38B207E1F710E1CBE2D0E104C017
:102090002197FE010E944232CA32D107C9F70E943D
:1020A000CC220C9448320C94000080916A0208956E
:1020B00090918208982329F490918108982381E0D7
:1020C00009F480E008957F928F929F92AF92BF9221
:1020D000CF92DF92EF92FF920F931F93CF93DF93F4
:1020E0009C01EB01FA0114913196E491810F911D4D
:1020F00070E8721B803891050CF4712FDE0183E0CB
:10210000B595A7958A95E1F79A2E91E08E2F877065
:1021100009F490E0E695E695E6959E0FFD01E90F3E
:10212000F11D399714F098E09A1B4E5F5F4F6C2FAA
:102130006770ED01D695DC2FCC27D795C795C20FD8
:10214000D31FA62E062E000CBB08171B2FEF30E066
:10215000062E02C0220F331F0A94E2F72095309515
:10216000822E732E272F210F3327331F6901892DCC
:102170008A1B891788F58E010F5E1B4FF12CE12C0D
:10218000E71620F5FA01EE0DFF1D249130E00A2C30
:1021900002C0220F331F0A94E2F797FC05C0F80132
:1021A00080818821822B8083662351F0F6E0F91527
:1021B0003CF0F801E058FF4F80818721832B80831A
:1021C0002FEFE21AF20A0F5F1F4FDACF4C0D5D1DA1
:1021D000C058DF4F9394CBCFDF91CF911F910F91D8
:1021E000FF90EF90DF90CF90BF90AF909F908F9037
:1021F0007F900895FC0190917B089A3011F480E063
:1022000008958081E92FF0E0EF58F74F8083E1E0F7
:10221000E90FE0937B08EA3091F3DB018C91F0E069
:10222000EF58F74F80839E5F90937B0881E008957D
:10223000FC0190917B089A3011F480E00895808130
:10224000E92FF0E0EF58F74F8083E1E0E90FE093EA
:102250007B08EA3091F3DB018C91F0E0EF58F74F07
:102260008083E2E0E90FE0937B08EA3031F3DA01A2
:102270008C91F0E0EF58F74F80839D5F90937B083F
:1022800081E00895FC0190917B089A3059F080819B
:10229000E92FF0E0EF58F74F80839F5F90937B0822
:1022A00081E0089580E00895809111048EBDE2E1FF
:1022B000F4E081E198E021910DB407FEFDCF2EBD41
:1022C0008E179F07C1F70DB407FEFDCF0895FC01DF
:1022D00080911004882311F13FB7F89482E0809335
:1022E000E9002091F200822F90E01816190614F4EC
:1022F00081E090E0882339F0289844E640930F0469
:102300004091F1004083222339F02091F200211105
:1023100003C02BE62093E8003FBF08958FEF9FEFA7
:1023200008952FB7F89483E08093E9009091E80036
:10233000892F807295FF04C09091F20080E4891B80
:102340002FBF08958091070481110DC082E0809312
:10235000030484E0809304041092060410920504A0
:1023600081E08093070483E094E00895CF93DF93A6
:102370001F92CDB7DEB76983DC01ED91FC9102803D
:10238000F381E02D41E050E0BE016F5F7F4F099582
:102390000F90DF91CF91089583E08093E9008091C1
:1023A000F200882319F08AE38093E80008950E94E0
:1023B000911190E00895CF93DF931F92CDB7DEB7D0
:1023C000FC018485958597FD08C02FEF3FEF358789
:1023D00024870F90DF91CF910895CE0101960E943E
:1023E0006711019719F4898190E0F3CF8FEF9FEF88
:1023F000F0CF0F931F93CF93DF931F92CDB7DEB72C
:102400008C01FC018485958597FF0BC0CE01019658
:102410000E946711019771F4898190E0F801958716
:102420008487F801848595850F90DF91CF911F9166
:102430000F9108958FEF9FEFF1CFFC018485958573
:1024400097FD0BC09FB7F89482E08093E9008091DC
:10245000F2009FBF90E0019608959FB7F89482E044
:102460008093E9008091F2009FBF90E00895409131
:10247000FD035091FE032091FB033091FC034217B2
:102480005307B4F49091E8009570E1F39091E8005F
:1024900092FD19C08093F1008091FD039091FE039D
:1024A00001968F739927892B19F48EEF8093E8009A
:1024B0008091FD039091FE0301969093FE0380931B
:1024C000FD0381E0089580E00895EF92FF920F935D
:1024D0001F93CF93DF93F82E192FE62E042F81E060
:1024E000860F880F0E94371283E00E943712CF2D8B
:1024F000D12FEC0EFD2EF11CCE15DF05B9F007FF34
:1025000013C0FE0184910E943712182F80E00E94B0
:102510003712812321968111EFCFDF91CF911F9147
:102520000F91FF90EF9008958881EDCF81E0F5CF76
:10253000DF92EF92FF920F931F93CF93DF93D82EEA
:102540008A01EB017B01E40EF51ECE15DF0559F083
:10255000D7FE12C0FE0184910E943712219681118C
:10256000F4CF0FEF1FEFC801DF91CF911F910F91B3
:10257000FF90EF90DF9008958881EECF0F931F9327
:10258000CF93DF931F92CDB7DEB782E0898342E419
:1025900050E06FED7FE180E80E9498120E94A21146
:1025A000DC0112960D911C910115110589F0D801DD
:1025B000ED91FC910280F381E02DBE016F5F7F4FB2
:1025C000C801099597FD04C0F80100851185ECCF7D
:1025D00089810F90DF91CF911F910F9108956150E4
:1025E00030F02091F100FC0120830196F8CF28986B
:1025F00084E680930F0408953FB7F89480917A029F
:1026000090917B02A0917C02B0917D0226B5A89B9F
:1026100005C02F3F19F00196A11DB11D3FBFBA2F74
:10262000A92F982F8827BC01CD01620F711D811D34
:10263000911D42E0660F771F881F991F4A95D1F7B9
:1026400008958F929F92AF92BF92CF92DF92EF92B6
:10265000FF926B017C010E94FC124B015C01C114D2
:10266000D104E104F104B9F00E94FC12681979095F
:102670008A099B09683E73408105910580F321E03A
:10268000C21AD108E108F10888EE880E83E0981E8E
:10269000A11CB11CE4CFFF90EF90DF90CF90BF90D2
:1026A000AF909F908F9008958F929F92AF92BF921C
:1026B000CF92DF92EF92FF920F931F93CF93DF930E
:1026C0006C017B018A0180910C01882309F45CC0B4
:1026D00080911004882309F457C08091020480FF80
:1026E00005C08091E00082608093E000E801B12C99
:1026F0008AEFA82E93E0892E2AE3922E209711F4D8
:10270000BB20D9F10E94911181110AC0AA94AA207C
:10271000D9F161E070E080E090E00E942113EECFFB
:102720008C171D0611F00CF08C2F9FB7F894809237
:10273000E9002091E80025FD02C09FBFDFCF282FD0
:1027400030E0C21BD30BF701815020F04191409340
:10275000F100FACFE20EF31EBB2021F09092E800C8
:10276000B12CEBCF8091E80085FDE7CF9092E80097
:10277000BB24B394209709F3F3CF5D9884E680934C
:102780000104101611063CF081E090E0F6019383FD
:10279000828310E000E0C801DF91CF911F910F917B
:1027A000FF90EF90DF90CF90BF90AF909F908F9071
:1027B000089520917202E0917002F0917102CF01B0
:1027C00002969093710280937002222319F08591F2
:1027D00094910895808191810895CF92DF92EF9234
:1027E000FF92CF93DF930E94D913811520E89207BF
:1027F00091F4809171008D7F80937100109291000F
:102800004698479810926F02DF91CF91FF90EF901A
:10281000DF90CF90089521E020936F02813020E86F
:10282000920751F480916D0290916E029093710223
:10283000809370020E94D91397FD05C020916C020D
:10284000222309F454C020916B02211150C021E0D1
:1028500020937302EC01DF77209709F04BC081E0F1
:102860008093740246983FE9C32E3FE0D32EE12CBB
:10287000F12CCAEFD0E0E0916F08F0917008099553
:10288000811103C081E080937402809173028823D8
:1028900029F080917402882309F43FC047980E9470
:1028A000D9130097F1F19C01DE010E941332DC0183
:1028B000CB0129E0B595A795979587952A95D1F7EE
:1028C000109290002AE020939100D0929900C0923B
:1028D00098008093750290937602A0937702B0934C
:1028E0007802809171008260809371008DCF109288
:1028F0007302B0CF9E0150E040E060E472E48FE0EC
:1029000090E00E94BF3169017A0181E0C81AD108C4
:10291000E108F10810927402AECF4699BFCF479AF2
:10292000BECF8FEF9FEFDC01CBCF9C01E1E7F0E062
:1029300090819D7F908381E0809372023093710239
:102940002093700230936E0220936D020C94ED136D
:10295000BC0190E080E00C9421138FB18095807FC2
:10296000669B88601C9B8460089583B7817F83BFCA
:1029700083B7816083BF889583B78E7F83BF0895B7
:1029800010926A023E983F9808953E9A3F9A81E0DD
:1029900080936A020895E4EBFAE190E1969FD001FA
:1029A000A0781124A80F6770E60FF11D9491AF5E17
:1029B000BB4F442321F08C91982B9C9308959095C4
:1029C0008C919823FACF1F93CF93DF93DC0130E0F3
:1029D00020E050E040E011E0C1E0D0E026173707EA
:1029E00091F114968C911497811115C014961C9333
:1029F000149712968D919C911397ED91FC911197DC
:102A0000E80FF91FE4911596EC931597019613962C
:102A10009C938E93129714969C91149715968C9173
:102A20001597892349F0FE01022E02C0EE0FFF1F09
:102A30000A94E2F74E2B5F2B990F14969C931497F0
:102A40002F5F3F4FCBCFCA01DF91CF911F910895E8
:102A50002F923F924F925F926F927F928F929F92AE
:102A6000AF92BF92CF92DF92EF92FF920F931F939C
:102A7000CF93DF93CDB7DEB72F970FB6F894DEBFB5
:102A80000FBECDBF4C017B012C870D875A83498334
:102A90001C821B821D821E8268E070E0CE010196BE
:102AA0000E94E3141C019C012F5F3F4F3B872A8744
:102AB00068E070E0CE0101960E94E3148C0161E0B1
:102AC00070E0CE0101960E94E3142A853B85280D13
:102AD000391D37FDF5C030E8831691040CF0F0C0C5
:102AE0000F5F1F4F98012E0D3F1D37FDE9C040E4D9
:102AF000E416F1040CF0E4C06701F7FE04C0CC2436
:102B0000DD24CE18DF0857E0C522DD242701F7FEBB
:102B100003C097E0490E511C73E0559447947A9591
:102B2000E1F7F7FE09C021E0421A510828E030E041
:102B3000A9014C195D096A01980117FF02C0295FBC
:102B40003F4FA90163E0559547956A95E1F758878E
:102B50004F8307701127012B21F04F5F5F4F58877C
:102B60004F830D857101011102C0F12CE12C898781
:102B700001E010E0B12CA12C88E090E09C012C1920
:102B80003D093F872E874F815885A416B5060CF066
:102B900097C066246394712C61E070E0CE010196C9
:102BA0000E94E314892B21F452E0650E711CF4CFCE
:102BB000B301CE0101960E94E31401963C0170E03E
:102BC00060E06615770508F071C089858111102BCA
:102BD000A02FAA0F09F067C0A2014A0D5B1DCA0110
:102BE00001960997D0F5C4018E0D9F1D803891057F
:102BF000A0F5CA019695982F882797958795880DF7
:102C0000991D8E0D9F1D4F3F540709F454C0212F6D
:102C10000C2C01C0220F0A94EAF7FC01EF5EFB4F77
:102C2000B0810C85002371F12B2B2083C114D104BA
:102C3000A1F04730510589F0212F30E00E8402C009
:102C4000359527950A94E2F7FC01EF56FB4F10816A
:102C50004C854423D1F0212B20830D85011118C010
:102C60002FEFE21AF20A4A855B85E416F506CCF0EE
:102C70005FEFA51AB50A01E0F12CE12C6F5F7F4FE1
:102C80001A2F9FCF20952B23D0CF20952123E4CF3F
:102C900081E0E81AF108F7FE04C09FEFA91AB90A0B
:102CA000710101E0EBCF0A2FA12FE8CF298531E098
:102CB0002327298768CFC114D10409F0BDCFCDCF18
:102CC0002F960FB6F894DEBF0FBECDBFDF91CF9128
:102CD0001F910F91FF90EF90DF90CF90BF90AF903A
:102CE0009F908F907F906F905F904F903F902F902C
:102CF000089508952F923F924F925F926F927F9224
:102D00008F929F92AF92BF92CF92DF92EF92FF92FB
:102D10000F931F93CF93DF938C01EB01F42E41119E
:102D20008EC0E091ED030E2E000CFF0BF7FF03C0E9
:102D3000F195E195F109E150E43108F0A4C0F0E02B
:102D4000E755F94E8091F003082E000C990B0C9476
:102D50004232BD16BD16BD163B173B173B173D173C
:102D60003D173D173D173D173D17BD16BD16BD1646
:102D7000BD16BD163D173D17BD1605962CE04CE15E
:102D800062E370E0D801ED91FC91DF01A05CBF4FE0
:102D9000C090EE03D090EF03AC19BD09A617B7079A
:102DA0000CF44DC0460F572F511DA417B5070CF05A
:102DB00046C0D80112964C91129750E04817590717
:102DC000F4F1280F392F311D42175307C4F5F98349
:102DD000E88304979B838A8385E08C8388E893E16A
:102DE0008D939C938091F4038F5F8093F4038330E1
:102DF00031F582E79BE10E94951486E08C838091F7
:102E0000F503811107C081E08093F50382E79BE120
:102E10000E9495148091C3039091C203890F8093FF
:102E2000C3031092C203E2ECF2E08EE09081923193
:102E300009F480833496B3E0E23CFB07B9F7F8016C
:102E40008281853338F58F3208F0B3C08832C8F5F7
:102E5000DF91CF911F910F91FF90EF90DF90CF9076
:102E6000BF90AF909F908F907F906F905F904F90AA
:102E70003F902F900895079681CF05962DE04EE064
:102E800069E370E07FCF20E040E062E370E090E033
:102E900080E078CF8D538E30D8F680E99AE10E9499
:102EA0009514F80180819181998388838CE390E067
:102EB0009B838A8381E08C8388E893E1918380837C
:102EC000C7CF7AE5E72E72E0F72EE3E06E2E712C85
:102ED000F8E8CF2EF3E1DF2E55245394A6E04A2ED6
:102EE000B2ECAB2EB3E0BB2E8DE0382E9FE0292E46
:102EF000D7018C91811153C0F80140815181119605
:102F00008D919C91841B950B97FF03C091958195A2
:102F10009109803191050CF042C0D70113962C9194
:102F200013972F5F13962C9359834883B3010E9404
:102F30002E324B01B4E28B0E911C9B828A82E2E01E
:102F4000EC83253049F582E79BE10E949514D70177
:102F50005C92F80180819181998388839B828A8227
:102F60004C82E2ECF2E080E09081911111C030825D
:102F7000D70111962D913C91205F3F4F33832283DF
:102F8000829D902D1124965F91838F5F803121F077
:102F90003496AE16BF0641F7F801D182C082F4E044
:102FA000EF0EF11C2AE6E21622E0F20609F0A0CFAD
:102FB0004FCF20813181E2ECF2E0D12CC12C808115
:102FC00081508C30A8F582819381821B930B0397EB
:102FD00078F58EE99AE10E949514F801808191813B
:102FE0009983888384E390E09B838A8382E08C8347
:102FF00088E893E191838083F601EE0FFF1FEE0FC7
:10300000FF1FEE53FD4F80E180838091C3038F5FEC
:103010008093C3039091C002292F280F3327331FB9
:103020002034310509F014CF82E38093F50310CFEB
:103030008FEFC81AD80A349690E4C916D10409F063
:10304000BECFFF2009F404CF82E8A82E82E0B82E7C
:1030500095E0992E22E0822E38E8E32E33E1F32E1C
:1030600042E3C42ED12C56E0752ED80115968C91D2
:1030700015978A3190F12D913C91F50183819481CE
:10308000821B930B97FF03C0919581959109803125
:1030900091051CF539832883089734F183E390E088
:1030A0009B838A838C82D801ED92FC92F501808506
:1030B0008F5F808790E0209100012130C1F026E0F1
:1030C00030E08217930749F482E79BE10E94951450
:1030D000DB82CA827C82D5018C929A94B9E0AB0ED5
:1030E000B11C9110C2CFB4CE8EE290E0D9CF24E0D3
:1030F00030E0E7CFEDEEF3E081E0808314821582CB
:1031000011861282118288E28383168217821086CA
:1031100088E893E19093C5038093C4039093BC0225
:103120008093BB021092C10210927B080895CF9247
:10313000DF92EF92FF920F931F93CF93DF93142FA1
:10314000111F1127111F042E000C550B57FF03C030
:103150005195419551094150510996E0949F600164
:10316000959FD00C1124E62E660FFF08C82F880FFC
:10317000DD0BF601EE0FFF1FE35BFE4F4081518137
:10318000012F20E0B701CE010E942815F601EE0FB5
:10319000FF1FE55BFE4F4081518121E0B701CE0169
:1031A0000E942815E091FA03EC0DFD2DF11DEE0FA4
:1031B000FF1FE15BFE4F4081518121E0B701CE014D
:1031C0000E942815DF91CF911F910F91FF90EF90F2
:1031D000DF90CF900895E8E0E80FE13148F50E2E3A
:1031E000000CFF0BEA50F74E0C94423222191819CA
:1031F000181918191E1918191A19161912190E1951
:103200000A19181907191819181918190C19662309
:1032100039F00895662341F084E00895662341F073
:1032200082E00895662341F081E00895662341F02D
:1032300080E00895662341F08FEF0895662329F01A
:103240008EEF08956623A1F38CEF0895CF9388E065
:103250000E945810811104C084E00E94581081110E
:103260001092F9034AE859E161E170E080E290E0F0
:103270000E94631080917F089091800860E370E065
:103280000E942E328831910568F4C1E10C9708F054
:10329000CEE143E859E169E170E08BE590E00E94FE
:1032A000631004C0CFE1849708F0C0E26C2F70E097
:1032B00041E084E390E00E94CB14C0FD09C04FE7D9
:1032C00059E16CE170E08DE290E0CF910C946310D5
:1032D000CF910895DF92EF92FF920F931F93CF93B8
:1032E000DF93D82E00E021E048E759E170E060E08C
:1032F0008FEF9FEF0E9428158091C3031AE0612F82
:103300000E942232C92FE82FF0E0EE0FFF1FEC5988
:10331000F64E4591549121E070E060E084E090E049
:103320000E942815EC2FF0E0EE0FFF1FEC59F64E2F
:103330004591549121E070E060E089E090E00E94C6
:1033400028158091C002612F0E942232C92FD0E03F
:10335000CC0FDD1FCC59D64EE82EF12CEE0CFF1C05
:10336000C7018C59964E7C01DD2009F452C021E042
:103370004BE559E170E060E08EE090E00E94281596
:103380008091C203612F0E942232192FE82FF0E0B2
:10339000EE0FFF1FEC59F64E4591549121E070E07D
:1033A00060E085E190E00E942815E12FF0E0EE0F4B
:1033B000FF1FEC59F64E4591549121E070E060E01A
:1033C0008AE190E00E94281521E042E559E170E091
:1033D00060E08FE190E00E942815F701459154913B
:1033E00021E070E060E086E290E00E942815FE0196
:1033F0004591549121E070E060E08BE290E00E9402
:103400002815DF91CF911F910F91FF90EF90DF90E2
:10341000089500E021E042E559E170E060E08EE0CF
:1034200090E00E942815F7014591549121E070E049
:1034300060E085E190E00E942815FE0145915491DD
:1034400021E070E060E08AE190E0D9CFEF92FF9256
:103450000F93CF93DF93EC01EC81E63098F5E430E5
:1034600020F48FEF8E0F823078F58091EE039091EB
:10347000EF0328813981AC014F58510924173507D2
:103480001CF1425E5E4F42175307F4F0F0E0EE0F7E
:10349000FF1FE95CFE4F408151816A817B81821B65
:1034A000930B00E021E0CC960E9428158C8181507E
:1034B0008C83882311F0833039F488E893E1998371
:1034C000888302C0EA3030F0DF91CF910F91FF90F6
:1034D000EF900895E090EE03F090EF0388819981DA
:1034E00097012F5831098217930774F3225E3E4FDC
:1034F000281739074CF3F0E0EE0FFF1FED5DFE4F8C
:10350000408151816A817B819701281B390BC90158
:1035100000E020E0C4960E942815EC81F0E0EE0F58
:10352000FF1FE95CFE4F408151816A817B81888168
:1035300099819701281B390BC90121E0C4960E948B
:1035400028158C818F5F8C838A3009F0BDCFB5CF71
:10355000AF92BF92CF92DF92EF92FF920F931F93A1
:10356000CF93DF93FC01408151814838F3E15F073D
:10357000D9F12091EE033091EF03B9016F58710931
:10358000461757078CF1625E7E4F6417750764F12A
:10359000FC01E280F12C241B350B8901015C1F4FDB
:1035A000E901CF5BDF4F5701F2E0AF0EB11C0C1702
:1035B0001D07D1F06701C50121E4A216B10414F082
:1035C00080E490E0C816D90664F40038110528F4A8
:1035D00041E0B601C8010E94CB148FEFC81AD80A87
:1035E000EACF0F5F1F4FE3CFDF91CF911F910F9174
:1035F000FF90EF90DF90CF90BF90AF9008954F92E3
:103600005F926F927F928F929F92AF92BF92CF9272
:10361000DF92EF92FF920F931F93CF93DF93182FB8
:10362000C091C102F12CE12CCC2E0C2E000CDD0837
:10363000C6018E0D9F1D20E4E20EF11CE11431E065
:10364000F30649F000E021E04AE359E16BE270E063
:103650000E942815EDCFC178C7FF03C0C150CE6FBF
:10366000CF5F0C2E000CDD0BC038D10530F441E0EB
:1036700063E370E0CE010E94CB142296C138D105DD
:103680009CF3C091EE03D091EF03CE0183569F4F80
:103690008630914060F57E015AE5E50EF11C5E0131
:1036A00084E8A80EB11CAE14BF04B9F00BE2C02E22
:1036B000D12C90E8E916F10428F440E0B601C701E6
:1036C0000E94CB14EFEFCE1ADE0AF4E3CF16D1043A
:1036D00081F72FEFE21AF20AE6CF00E021E04DE099
:1036E00058E160E270E0CE014A960E94281511234D
:1036F00019F1412F4150550BFA01EE0FFF1FE95F01
:10370000F74E4591549100E021E066E170E086E2D9
:1037100090E00E942815DF91CF911F910F91FF90AB
:10372000EF90DF90CF90BF90AF909F908F907F9061
:103730006F905F904F900895AAE5EA2EA2E0FA2ECE
:10374000BAE64B2EB2E05B2E5E015FE8A51AB10827
:103750004E018FE8880E911CF701818192818A15B4
:103760009B0534F1881699061CF120814DE857E13C
:10377000F1EF6F2EF6E17F2E211106C04AEC57E1E2
:10378000EEE36E2EE7E17E2E6E01C81AD90AF1E350
:10379000CF0ED11C00E020E068E270E0C6010E947C
:1037A000281521E0A30168E270E0C6010E942815F7
:1037B00024E0E20EF11C4E145F0471F662ECE62E7A
:1037C00062E0F62E72ECC72E73E0D72E4E0134E87D
:1037D000831A91083E0144E8640E711CF70182814E
:1037E0009381881599056CF16816790654F120814A
:1037F0003FEF320F303128F5E32FF0E0EE5FF34E6C
:103800000C944232121C121C121C121CF71CF71CC6
:10381000F71CF71C131D131D171D171D211C211C40
:10382000031D031D422F4150550BFA01EE0FFF1FE0
:10383000EB5EFE4F4081518100E04115510509F0DA
:10384000E7C034E0E30EF11CCE14DF0409F0C6CF6C
:103850008091F5039DEF980F9F3208F4ECC04091E2
:10386000ED036091F0038DE20E94971822E8E22EAA
:1038700022E0F22E3FEA832E32E0932E3E014FE803
:10388000640E711CF7011081112309F445C0838176
:1038900094818A159B050CF43FC0681679060CF4D8
:1038A0003BC06E01C81AD90AF1E3CF0ED11C00E06B
:1038B00020E04FEB56E16FE270E0C6010E94281550
:1038C000F701578046E456E1552011F04DE756E1E7
:1038D00000E021E06FE270E0C6010E942815F701C8
:1038E0008181E82FF0E0EE0FFF1FEB54F94E459178
:1038F000549101E0823008F000E021E06FE270E0D6
:10390000C6010E9428158DEF810F823008F0B0C0EB
:1039100081E05826F7015782F9E0EF0EF11C8E1472
:103920009F0409F0AFCF89EC93E00E94A81A8FECB6
:1039300093E00E94A81A85ED93E00E94A81A8BEDEF
:1039400093E00E94A81A81EE93E00E94A81A87EEE5
:1039500093E00E94A81A8FEA92E00E94A81A85EBD1
:1039600092E00E94A81A8091BB029091BC02883814
:10397000934121F08BEB92E00E94261A8091C403C0
:103980009091C5038838934159F084EC93E00E94EC
:10399000261A8091F503882319F08F5F8093F50331
:1039A000CA3FD1050CF077C0C23DD1050CF0E7C08D
:1039B000C43BD1050CF063C0CA3AD1050CF0B8C0C5
:1039C000C837D1050CF47FC0C03AD1050CF0A1C0B6
:1039D000CE5AD10901E020E04AEF55E162E070E003
:1039E000CE010E94281521E04FEB55E1BEC0422FC9
:1039F0004550550BFA01EE0FFF1FEB5EFE4F408165
:103A0000518101E01ACFF701308300E04CED56E11F
:103A10009E01281B390BC90121E060E370E0CD96BF
:103A20000E9428150ECF00E044EA5CE106CF00E0DA
:103A300041E95CE1EDCF8F5F8093F5038E3109F0B2
:103A400015CF8091F8038F5F8093F803843070F472
:103A50008091C3039091C002890F9927991F8034E8
:103A6000910524F482E08093F90300CF84E0FBCF3A
:103A7000133008F051CF1150F70110834DCFC83CDF
:103A8000D1050CF078C0CE3BD1050CF460C0CA570C
:103A9000D10900E050C0C23F48E0D4073CF5C83E21
:103AA00058E0D5070CF078C0CE3D88E0D8070CF080
:103AB00070C0C43D98E0D9070CF068C0CC3AE8E08B
:103AC000DE070CF060C081E0DF91CF911F910F9174
:103AD000FF90EF90DF90CF90BF90AF909F908F902E
:103AE0007F906F905F904F900C946A19C630F9E008
:103AF000DF0744F4CC3F28E0D2070CF450C0C05B91
:103B0000D8403BC0CE3239E0D307ECF6C25BD84098
:103B100038C0C05BD10901E020E045E755E162E033
:103B200070E0CE010E94281521E04AE355E11DC056
:103B3000C25BD10901E020E04AE055E162E070E0BB
:103B4000CE010E94281521E04CED54E10EC0C8576B
:103B5000D10900E020E045EC54E162E070E0CE01E4
:103B60000E94281521E044EA54E162E070E0CE01B1
:103B70000E942815A8CFCC57D10900E0CDCFCE5751
:103B8000D10900E028CFC25ED84024CFC45ED8401F
:103B9000C2CFC65ED840CECFCC5AD840DACFCE5AAC
:103BA000D84077CFCF93C0916A0282E090E00E9424
:103BB000A931C81731F06C2F82E090E0CF910C94BE
:103BC000B131CF910895CF92DF92EF92FF926B01C6
:103BD0007C01C114D104E104F10441F00E9451318F
:103BE000A70196010E94BF316B017C01C701B6019C
:103BF000FF90EF90DF90CF900895CF92DF92EF92F9
:103C0000FF920F931F93CF93DF930E947A1880EA5D
:103C100090E09093EF038093EE031092C303109211
:103C2000C2031092C0021092F703D1E0D093F803C0
:103C30008091110190911201A0911301B091140192
:103C400080935A0290935B02A0935C02B0935D0252
:103C500010925E0280E2C82E83E0D82ED0926002DD
:103C6000C0925F02109261021092620290EBE92E04
:103C700094E0F92EF0926402E092630210926502E1
:103C80001092660200E416E0109368020093670247
:103C90001092690260E971E080E090E00E94E31D0B
:103CA000C5E0C093820210928302C0938402685CD4
:103CB00071098109910960577E4F70938602609364
:103CC000850280E991E09093880280938702D093E7
:103CD000890210928A0260E971E080E090E00E941F
:103CE000E31DC0938B0210928C02C0938D02685C1E
:103CF000710981099109605E7C4F70938F02609316
:103D00008E02D0929102C0929002D09392021092B1
:103D1000930260E971E080E090E00E94E31DC093AF
:103D2000940210929502C0939602685C7109810911
:103D3000910960557B4F7093980260939702F092BF
:103D40009A02E0929902D0939B0210929C0260E941
:103D500071E080E090E00E94E31DC0939D0210920C
:103D60009E02C0939F02685C710981099109605CA1
:103D7000794F7093A1026093A0021093A302009365
:103D8000A202D093A4021092A50260E971E080E043
:103D900090E00E94E31DC093A6021092A702C09378
:103DA000A802685C7109810991096053784F70938A
:103DB000AA026093A90280ED97E09093AC028093F1
:103DC000AB02D093AD021092AE02E2ECF2E080E0E2
:103DD0009DE04FE0A82FA295AF7024E0A29FD001F4
:103DE0001124A65ABD4F11962D913C919083982F86
:103DF0009F70949F902D1124965F9183338322832B
:103E00008F5F3496803499F5E9ECF3E088E893E12C
:103E1000918380831282138214821582369623E066
:103E2000ED3EF207A9F79093B0028093AF02109293
:103E3000B1021092B2021092B3021092B4029093A7
:103E4000B6028093B5021092B7021092B802109297
:103E5000B9021092BA0281E08093F903DF91CF9109
:103E60001F910F91FF90EF90DF90CF90089590E019
:103E7000803108F0AFCF9DE0ADCF1F920F920FB60B
:103E80000F9211248F939F938091E1009091E10014
:103E9000937F9093E10083FF0FC01092E90091E0BF
:103EA0009093EB001092EC0092E39093ED0010924F
:103EB000100498E09093F00082FF22C093E090936A
:103EC000E9009091F200992319F09AE39093E800A9
:103ED00090910104992341F09091010491509093A5
:103EE0000104911101C05D9A90910F04992341F052
:103EF00090910F04915090930F04911101C0289A52
:103F000084FF18C08091E2008E7E81608093E20081
:103F10008091E1008F7E8093E100809102048E7E8B
:103F20008061809302049F918F910F900FBE0F903C
:103F30001F90189580FFF7CF8091E2008E7E806100
:103F40008093E2008091E1008E7E8093E100809179
:103F500002048E7E8160E5CF1F920F920FB60F9202
:103F60001124CF92DF92EF92FF920F931F932F9322
:103F70003F934F935F936F937F938F939F93AF93F1
:103F8000BF93EF93FF93CF93DF93CDB7DEB76C97DB
:103F9000DEBFCDBF1092E9008091E80083FF25C00D
:103FA00068E0CE0145960E94EF1282EF8093E80010
:103FB0008D8987FF39C09091E80090FFFCCF982F42
:103FC000907609F034C19E894F89588D2F89F88CDD
:103FD000911131C0803861F5809100048093F10027
:103FE0001092F1008EEF8093E8006C960FB6F89473
:103FF000DEBF0FBECDBFDF91CF91FF91EF91BF919B
:10400000AF919F918F917F916F915F914F913F9170
:104010002F911F910F91FF90EF90DF90CF900F9015
:104020000FBE0F901F9018959EEF9093E800C7CF9A
:104030001092F100D5CF913059F48111D3CF413096
:10404000510581F6809100048D7F80930004CACFD2
:10405000933049F48111C6CF4130510519F6809152
:1040600000048260F2CF953041F48091E80080FF37
:10407000FCCF20682093E300B5CF963009F0A9C0AB
:104080000B8D1C8D22E01092E9001092FE0310921D
:10409000FD03F2122EC01092FC031092FB030E944B
:1040A000BE121F8299E09983FA8291E09E8390EA82
:1040B00098879AEF99872091FD033091FE03275F3F
:1040C0003F4F3C832B838D831092E9001092FE03B7
:1040D0001092FD031093FC030093FB0349E050E0B2
:1040E000BE016F5F7F4F80E00E9498120E94BE1257
:1040F00079CF1093FC030093FB030E94A211DC0113
:1041000012960D911C910115110509F451C1D801A8
:10411000ED91FC910480F581E02DBE016B5E7F4F37
:10412000C8010995009709F03EC1F8010085118585
:10413000EACFF3E0FF120EC08F89882309F440C054
:10414000823061F440E860E183E490E20E9465120D
:10415000811148CF81E28093EB0047CF813029F471
:1041600040E86BE087E390E2F1CF833099F70E945B
:10417000A211DC011296ED90FC908E010F5F1F4F93
:104180006801E114F10479F0D701ED91FC9106800A
:10419000F781E02DB801C7010995080F111DF7013E
:1041A000E084F184EECFD8011C92F601019000204A
:1041B000E9F73197BF016C197D0940E0C601C6CF10
:1041C00061E270E2FB01449150E080E80E949812A5
:1041D00009CF973009F4BECF983021F481E0809365
:1041E000F10000CF993009F0FDCE837009F0B2CF15
:1041F000ECE3F2E081E031E096E32191222371F0DB
:104200008093E9003093EB00DF0111972C9120930C
:10421000EC009093ED008F5F873079F78EE7809305
:10422000EA001092EA008F8980931004DBCE8B8D18
:104230009C8D1092E9001092FE031092FD03909362
:10424000FC038093FB03898D811192C08E899D8927
:10425000913A49F4813209F07DCF47E050E065E0C2
:1042600071E080E0B3CF913209F074CF833269F40A
:104270008F89988DB0E0A0E08093010190930201B6
:10428000A0930301B0930401ADCE803269F4809114
:10429000E80082FFFCCF67E085E091E00E94EF122A
:1042A0008BEF8093E8009ECE823209F09BCE8F89FF
:1042B00080930C01EEEFFFE7859194918B3F9C4D2D
:1042C00051F1E0E0F8E08091050190910601A091A4
:1042D0000701B0910801803B9440A105B105F1F4BC
:1042E00080910C0180FD1AC0EE3F8AE0F80789F545
:1042F00087E797E791838083809160008093FF0335
:1043000088E19BE00FB6F894A895809360000FBEFB
:104310009093600067CEEEEFFAE0D5CF8081918177
:104320008737974709F05ECEA89580916000886135
:10433000809360008091FF0380936000EE3F2AE04D
:10434000F20789F08091FE0A9091FF0A91838083A1
:1043500049CE808191818737980751F29093FF0A67
:104360008093FE0AC5CF1092FF0A1092FE0A3ACE41
:104370000E94A211DC0112960D911C9101151105EC
:1043800009F4E8CED801ED91FC910190F081E02D87
:10439000BE016B5E7F4FC8010995811123CEF801E4
:1043A00000851185EBCF181619060CF41BCED2CE62
:1043B000F1E0FF12BECE65E270E204CF1F920F92D1
:1043C0000FB60F9211242F933F938F939F93AF9328
:1043D000BF9380917E0290917F02A0918002B09164
:1043E00081023091790223E0230F2D3758F5019691
:1043F000A11DB11D2093790280937E0290937F02CC
:10440000A0938002B093810280917A0290917B0206
:10441000A0917C02B0917D020196A11DB11D8093F7
:104420007A0290937B02A0937C02B0937D02BF91AD
:10443000AF919F918F913F912F910F900FBE0F9051
:104440001F90189526E8230F0296A11DB11DD2CF0B
:104450001F920F920FB60F9211242F933F934F93F9
:104460005F936F937F938F939F93AF93BF93EF93DC
:10447000FF938091750290917602A0917702B0919E
:104480007802892B8A2B8B2B09F440C0809174020F
:1044900081110BC088B190E4892788B9809173029B
:1044A000882319F088B1805888B98091750290915D
:1044B0007602A0917702B0917802181619061A06B2
:1044C0001B069CF48091750290917602A091770270
:1044D000B09178020197A109B10980937502909378
:1044E0007602A0937702B0937802FF91EF91BF918B
:1044F000AF919F918F917F916F915F914F913F917C
:104500002F910F900FBE0F901F9018950E94ED13E2
:10451000ECCFE1E1F8E01382128288EE93E0A0E0B4
:10452000B0E084839583A683B78386E492E0918389
:1045300080838FEF9FEF95878487ECE7F8E0158203
:10454000168220E12783948383831486158616863A
:104550001786108A88E592E09183808385E590E153
:104560009093700880936F0880E090E890936E08B5
:1045700080936D0846983E9A47983F9AE1E7F8E0A5
:10458000108211821282138214821582168217827F
:104590001086118612860895CF93DF9300D01F9264
:1045A000CDB7DEB7789484B5826084BD84B5816070
:1045B00084BD85B5826085BD85B5816085BD8091EE
:1045C0006E00816080936E00109281008091810066
:1045D000826080938100809181008160809381005E
:1045E0008091800081608093800080919100826042
:1045F00080939100809191008160809391008091DF
:1046000090008160809390008091C10084608093CD
:10461000C1008091C10082608093C1008091C1007F
:1046200081608093C1008091C30081608093C3004A
:104630008091C00082608093C0008091C200816040
:104640008093C20080917A00846080937A00809188
:104650007A00826080937A0080917A0081608093F2
:104660007A0080917A00806880937A00109210041A
:1046700010920004109202048091D7008160809310
:10468000D70080EA8093D80089B5806189BD89B55B
:10469000826089BD09B400FEFDCF61E070E080E07A
:1046A00090E00E9421138091D8008F7C80618093DC
:1046B000D8008091E000807F8093E0008091E1004D
:1046C0008E7E8093E1008DE08093E200559A209ADF
:1046D00081EC80937C0085B1806F85B9249884B18A
:1046E000866E84B95E9A5F988AB1806D8AB9769A2F
:1046F0006E9881B3806F81BB899880B38D7080BBC9
:1047000080E58CBD81E08DBD85E090E00E94A8141D
:104710005F9A85E090E00E94A8145E985C98ECEBAC
:10472000FAE189EC9AE124912EBD00000DB407FE58
:10473000FDCF31968E179F07B1F75C9A81E8809381
:10474000640081E0809365000E94AD1487FF13C070
:104750005C9885EA8EBD00000DB407FEFDCF5C9A23
:104760002E982F982D988091640080628093640029
:104770000E94B514FDCF0E94AD1482FF46C02D9853
:104780000E94AD1484788438D9F42D9A88EC90E096
:104790000E94A8142F9882E090E00E94A9318F3FD8
:1047A00029F06FEF82E090E00E94B13184EF91E058
:1047B0000E94A8142F9A0E94AD1484788438D9F3EB
:1047C0000E94AD1484718431D9F42D9A88EC90E064
:1047D0000E94A8142E9882E090E00E94A9318823BC
:1047E00029F060E082E090E00E94B13184EF91E036
:1047F0000E94A8142E9A0E94AD1484718431D9F3BA
:1048000088EC90E00E94A814B6CF2D9A82E090E048
:104810000E94A931882309F45BC00E94C51488E274
:1048200080938308809164008E7F809364008091E0
:104830007A00806480937A0080917A0086FDFCCFB4
:1048400000917800109179000E94FC12AB01BC012C
:10485000C801B0E0A0E0DC01992788278C019D0108
:10486000040F151F261F371FC901B80161157105F7
:104870008105910511F00E94A03180916400816052
:10488000809364000E94FD1D85E08093F90398E801
:10489000C92E93E1D92E2FB7F89480917E02909182
:1048A0007F02A0918002B09181022FBF20918C08DD
:1048B000222389F020918408821B80938D08109216
:1048C0008C0880E090E0892B31F30E940000E3CF58
:1048D0000E94C014A4CF409188085091890860912B
:1048E0008A0870918B0884179507A607B70730F4DC
:1048F000481B423030F30E94B514E3CF21E02093EF
:104900008C088093840890938508A0938608B093C0
:10491000870820918308820F911DA11DB11D8093EE
:10492000880890938908A0938A08B0938B08809197
:104930007F089091800801969093800880937F086B
:104940008091FA038F5F843031F18093FA03809174
:104950008108809382080E94AD148093810880E0D2
:10496000E1E1F4E081118FEF002481938193819341
:1049700081930394D1F7E091F903E730B0F4F0E0CC
:10498000EC53FB4D0C944232D824DF24D525E52589
:10499000E030CE24D1241092FA03D9CF86E0809360
:1049A000F9030E9426190E9454110E94541189CFC4
:1049B0000E94FD1D85E49FE10E949514F6CF809131
:1049C000F703803CB0F4813808F0B8C0803808F0B4
:1049D0009FC0813408F08AC08823D1F000E021E034
:1049E0004CE95EE167E170E080E190E00E9428150B
:1049F00015C08F3F08F0C6C0813C08F4B1C000E08C
:104A000021E048EB5CE170E060E090E080E076C09F
:104A10008AEA90E09093EF038093EE030E94AD1436
:104A20001091F70385FF10C0812F837000E021E013
:104A300044EA5CE1833011F441E95CE164E370E055
:104A400083E090E00E9428151F5F1093F703E09029
:104A5000EE03F090EF0315ECE1161FEFF106ACF05A
:104A600000E020E040E55CE16CE070E0C7010E94FE
:104A7000281546E06CE08E2D0E94971823E0E21A7C
:104A8000F108F092EF03E092EE0388E00E945810E4
:104A9000882351F08EE29CE10E94951481E080937E
:104AA000000182E08093F90384E00E94581088237B
:104AB00049F08EE29CE10E94951482E0809300010F
:104AC0008093F90380E80E945810882321F00E9407
:104AD000C5140E94D21D80E10E945810882309F459
:104AE00064CF0E94C0140E94D21D5FCF00E021E07D
:104AF0004CE95EE167E170E080E190E00E942815FA
:104B000021E04BE55EE166E370E084E290E06ECF89
:104B100000E021E04FEB5DE170E060E090E080E0DC
:104B20000E94281521E047E75DE166E370E080E23E
:104B300090E00E94281586E990E06CCF00E021E02B
:104B40004FEB5DE170E060E090E080E00E942815AE
:104B500021E047E75DE166E370E080E290E046CF68
:104B600000E021E048EB5CE170E060E090E080E094
:104B70000E94281521E04BE55EE166E370E084E2E7
:104B800090E0D7CF00E021E04CE95EE167E170E022
:104B900080E190E00E9428158AEA90E09093EF036C
:104BA0008093EE031092F70339CF0E947A18809118
:104BB000F8030E94FF1A88E00E945810882309F425
:104BC000F4CE83E08093F903F0CE80917B088111CD
:104BD00007C10E94AD140091F00387FF31C060E06F
:104BE0008091F2030E3FACF50E94AD141091ED03DD
:104BF00082FF4FC08091F10381118BC0113089F188
:104C00001A3009F45CC01F3F09F043C087EF898365
:104C10008AE08A83BE016F5F7F4FCE0102960E94B9
:104C2000FA1089EF898388EF8A83BE016F5F7F4F17
:104C3000CE0102960E94FA1081E08093F30329C00E
:104C4000083294F68091F20390910001923031F491
:104C500061E00E94EB188093F203C6CF181624F28D
:104C6000F7CF89E089838AE08A83BE016F5F7F4F37
:104C7000CE0102960E94FA1087E0898388E08A8339
:104C8000BE016F5F7F4FCE0102960E94FA10109214
:104C9000F3030E94AD1485FF75C208320CF091C079
:104CA0001F3F09F45AC10CF065C0143F09F498C1C4
:104CB0001A3F09F466C182E08093F60391C08091A7
:104CC000F303811117C089EF89838FEF8A83BE01B7
:104CD0006F5F7F4FCE0102960E94FA1087EF8983A3
:104CE00088EF8A83BE016F5F7F4FCE0102960E94DC
:104CF000FA10CFCF87E0898381E08A83BE016F5F9E
:104D00007F4FCE0102960E94FA1089E0898388E0E5
:104D1000E8CF143F39F194F41F3E09F0BACF84E193
:104D2000898386E08A83BE016F5F7F4FCE01029642
:104D30000E94FA1082E1898383E1D3CF1C30B1F065
:104D4000113109F0A6CF8CEE89838AEF8A83BE01E8
:104D50006F5F7F4FCE0102960E94FA108EEE89831C
:104D60008DEEBFCF8CEE89838AEFBBCF84E1898340
:104D700086E0B7CF1A3009F4B5C0113109F4BEC0CE
:104D8000113009F098CF84E0898385E08A8386E03A
:104D90008B83AE014F5F5F4FBE016E5F7F4FCE01D1
:104DA00003960E94181112E0198383E08A83BE01E2
:104DB0006F5F7F4FCE0102960E94FA101093F603A8
:104DC0000FC00E94AD1487FD6BCF113009F41FC1D5
:104DD0000CF05DC01F3E09F494C11F3F09F4ACC143
:104DE00088E00E945810882309F4F8C38091ED03ED
:104DF000082E000C990B97FF03C09195819591099E
:104E0000982F8D50873008F4E9C3913008F4D2C44C
:104E1000943018F0853008F0CDC4E9ECF3E010E0F0
:104E200000E0808191818838934109F0D0C388E106
:104E30009CE10E9495148091EE039091EF032091E4
:104E4000ED0343EF5FEF27FD02C04DE050E036E099
:104E5000309FF001319FF00D1124E753FC4F840F78
:104E6000951F918380838091F003815F82839FEF00
:104E7000948398E027FF98EF26E0209FF001219F80
:104E8000F00D1124E753FC4F93838583A7C31A3099
:104E900009F4EDC01C3009F413C1163009F0A0CF9D
:104EA00085E38983CE0101960E94421112E01983A5
:104EB00081E08A83BE016F5F7F4FCE0102960E9420
:104EC000FA1085E0898384E08A8383E08B83AE01D6
:104ED0004F5F5F4FBE016E5F7F4FCE0103960E9412
:104EE00018116CCF8BE089838CE08A83BE016F5FE1
:104EF0007F4FCE0102960E94FA10DDCE84E08983B6
:104F000085E08A8386E08B83AE014F5F5F4FBE01F1
:104F10006E5F7F4FCE0103960E94181181E0898356
:104F200012E01A8383E08B83AE014F5F5F4FBE01B7
:104F30006E5F7F4FCE0103960E9418118EE0898329
:104F40008DE08A83BE016F5F7F4FCE0102960E9483
:104F5000FA1080E189838FE029CF81EF898380EF88
:104F60008A838FEE8B83AE014F5F5F4FBE016E5F12
:104F70007F4FCE0103960E94181183EF898382EF41
:104F8000B4CF81EF898380EF8A838FEE8B83AE016C
:104F90004F5F5F4FBE016E5F7F4FCE0103960E9451
:104FA000181183EF898382EF8A83BE016F5F7F4F81
:104FB000CE0102960E94FA108DEF89838EEF8A83CC
:104FC0008FEF8B83AE014F5F5F4FBE016E5F7F4FF0
:104FD000CE0103960E9418118BEF89838CEF85CF49
:104FE0008BE089838CE08A83BE016F5F7F4FCE01A7
:104FF00002960E94FA1085EF89838AE08A83BE01B7
:105000006F5F7F4FCE0102960E94FA1021C185E3A7
:105010008983CE0101960E94421103E0098382E058
:10502000F82EFA821B83AE014F5F5F4FBE016E5FA9
:105030007F4FCE0103960E94181184E389830A836F
:10504000BE016F5F7F4FCE0102960E94FA10F98277
:105050000A830B83AE014F5F5F4FBE016E5F7F4FD0
:10506000CE0103960E941811F092F603B9CE85E3A3
:105070008983CE0101960E9442110BE009830A83C5
:105080001B83AE014F5F5F4FBE016E5F7F4FCE014E
:1050900003960E94181184E38983CE0101960E9431
:1050A000421109830A838CE08B83AE014F5F5F4F0F
:1050B000BE016E5F7F4FCE0103960E941811FBCD9B
:1050C00085E38983CE0101960E9442111BE019837A
:1050D0001A838AE08B83AE014F5F5F4FBE016E5F24
:1050E0007F4FCE0103960E94181184E38983CE017D
:1050F00001960E9442111983CE0101960E9442112D
:10510000DACD85E38983CE0101960E9442118FEFAB
:105110008983CE0101960E94421183EF898382EF39
:105120008A83BE016F5F7F4FCE0102960E94FA1004
:1051300081EF898380EFD9CE85E38983CE01019603
:105140000E94421103EFF02EF9821A83BE016F5FB5
:105150007F4FCE0102960E94FA1011EF198302EFE1
:105160000A83BE016F5F7F4FCE0102960E94FA1044
:1051700084E38983CE0101960E944211F9820A8359
:105180001B8393CF0E94AD1486FF86C108320CF4B6
:1051900056C00E94AD1487FD52C01F3F09F4FBC0EA
:1051A000F4F4143F09F443C11A3F09F019CE85E322
:1051B0008983CE0101960E9442118EEF89838FEF81
:1051C0008A83BE016F5F7F4FCE0102960E94FA1064
:1051D0008BEF89838CEF8A838DEF8B83FFC01A302E
:1051E00009F407C1113109F43CC1113009F0F8CDBF
:1051F00085E38983CE0101960E944211FDE0EF2EE6
:10520000E9821A83BE016F5F7F4FCE0102960E9432
:10521000FA100FE00983AEE0FA2EFA82BE016F5F4A
:105220007F4FCE0102960E94FA1083E38983CE015C
:1052300001960E944211E982FA820B8348CE113016
:1052400009F486C03CF41F3E09F453C01F3FC9F166
:1052500081E032CD1A3009F448C01C3009F48CC00A
:105260001630B1F78FE0898380E18A8381E18B83F7
:10527000AE014F5F5F4FBE016E5F7F4FCE01039661
:105280000E9418118DE089838EE08A83BE016F5FD2
:105290007F4FCE0102960E94FA1083E0898382E05C
:1052A0008A8311E01B83AE014F5F5F4FBE016E5FCB
:1052B0007F4FCE0103960E94181185E0898384E018
:1052C00075CD8CEF89838BEF8A838AEF8B83AE0158
:1052D0004F5F5F4FBE016E5F7F4FCE0103960E940E
:1052E00018118EEF89838DEF89CE85EF898384EF46
:1052F00085CE8CEF89838BEF8A838AEF8B83AE0117
:105300004F5F5F4FBE016E5F7F4FCE0103960E94DD
:1053100018118FEF89838EEF8A838DEF8B83AE0117
:105320004F5F5F4FBE016E5F7F4FCE0103960E94BD
:10533000181182EF898383EF8A83BE016F5F7F4FED
:10534000CE0102960E94FA1080EF898381EF56CE3B
:105350008FE0898380E18A8381E18B83AE014F5F97
:105360005F4FBE016E5F7F4FCE0103960E94181102
:105370008DE089838EE01ACD85EF898384EF8A835F
:10538000BE016F5F7F4FCE0102960E94FA108BE044
:1053900089838AE0AACD85E38983CE0101960E94A4
:1053A00042110DEF0983BEEFFB2EFA821B83AE0183
:1053B0004F5F5F4FBE016E5F7F4FCE0103960E942D
:1053C000181183E389830A83BE016F5F7F4FCE018B
:1053D00002960E94FA10F9820A830B83AE014F5F96
:1053E0005F4FBE016E5F7F4FCE0103960E94181182
:1053F0002FCF85E38983CE0101960E94421105EFEC
:1054000009830A831B83AE014F5F5F4FBE016E5F4E
:105410007F4FCE0103960E94181183E38983CE014A
:1054200001960E94421109830A8384EFD6CE85E358
:105430008983CE0101960E94421115EF19838AE0FB
:105440008A83BE016F5F7F4FCE0102960E94FA10E1
:1054500083E38983CE0101960E94421119831A8346
:10546000CECD85E38983CE0101960E94421111E0E1
:105470001983CE0101960E9442118DE089838EE04E
:105480008A83BE016F5F7F4FCE0102960E94FA10A1
:105490008FE0898380E18ACC1A3F09F44AC074F412
:1054A0001F3E09F47AC0143F09F09ACC85E3898342
:1054B000CE0101960E94421185EF29C01C3001F1F6
:1054C000113109F450C0163009F08ACC85E3898384
:1054D000CE0101960E94421183E0898382E08A8393
:1054E00081E08B83AE014F5F5F4FBE016E5F7F4FE8
:1054F000CE0103960E94181185E0898384E009C0DB
:1055000085E38983CE0101960E9442118BE0898355
:105510008AE08A83BE016F5F7F4FCE0102960E94B0
:10552000FA108091F103882309F45ACC0CF0C3CB14
:105530008FCE85E38983CE0101960E9442118DEFC3
:1055400089838EEF8A838FEF8B83AE014F5F5F4F2E
:10555000BE016E5F7F4FCE0103960E9418118BEF44
:1055600089838CEFD6CF85E38983CE0101960E9493
:1055700042118EE089838DE08A8381E08B83AE01C6
:105580004F5F5F4FBE016E5F7F4FCE0103960E945B
:10559000181180E189838FE0BCCF85E38983CE0138
:1055A00001960E94421182EF898383EF8A838FEFF5
:1055B0008B83AE014F5F5F4FBE016E5F7F4FCE01A9
:1055C00003960E94181180EF898381EFA2CF0F5FAD
:1055D0001F4F36960630110509F023CCE0917B0869
:1055E00080917F0890918008EE23C1F180FD36C044
:1055F0003091ED03AFEFAE0FA0937B08B0E0AF5852
:10560000B74F2C912093ED03233361F422E02093D4
:10561000F603E250E0937B08F0E0EF58F74F20816B
:105620002093ED032091ED03243371F421E02093C6
:10563000F603E0917B08E150E0937B08F0E0EF583F
:10564000F74F20812093ED032091ED03253331F4B2
:105650001092F6031092F1033093ED0383709927B3
:10566000892BA1F48091F1039091F60361E09130D0
:1056700019F0923029F460E00E94EB188093F10356
:105680008091F103811102C01092F6039091F20310
:105690008091F003983F4CF09F3F09F00CF4B6C0A6
:1056A0002FEF290F283008F4CDC02091F2039091FC
:1056B000F003920F9093F003022E000C330B4091F5
:1056C000C6035091C703420F531F5093C703409323
:1056D000C6035091F1038091C102851B8093C102E2
:1056E0006091EE037091EF03DB01A51BB10957FD3B
:1056F000B395AD01B093EF03A093EE03803C1CF48F
:10570000805C8093C1028091C10218161CF4805401
:105710008093C102692F092E000C770B621B730B5B
:10572000663271050CF052C197320CF44FC1809172
:10573000ED03082E000C990B97FF03C091958195FE
:1057400091099091C3036091C00270E01091F5033C
:10575000A2ECB2E08150E82EF12C00E12C91215016
:105760002C3008F029C112962D913C911397241BDF
:10577000350B37FF03C0319521953109843108F08D
:105780001BC1F701EA53F44D0C944232D02CD02CBB
:10579000D02CD02CD02CD02CFF2DFF2DFF2DFF2D69
:1057A000FF2DFF2DD02CD02CD02CD02CD02CFF2D89
:1057B000FF2DD02CE9ECF3E010E000E08081918136
:1057C00088389341E1F488E19CE10E94951486E0D9
:1057D000809FF001819FF00D1124E753FC4F8091D1
:1057E000EE039091EF03918380838091F0038D5EAF
:1057F000828391E094839091F103990F45CB0F5FE1
:105800001F4F369606301105C9F6E8CE181664F01B
:105810009C3F69F49EEF9093F2038F3F2CF49FEF2F
:105820009093F2038E3F5CF09091F20318C08F3F8B
:10583000DCF79E3FA1F38E3FB9F39F3FA9F710928B
:10584000F203F2CF28E230E0291B310997FD3395AE
:10585000482F082E000C550B4217530724F4890FCC
:105860008093F00322CF2091ED03022E000C330B26
:1058700037FF03C03195219531092C3030F52730A1
:1058800018F42150233020F585326CF0943009F063
:105890003EC092E09093F20387322CF091E0909317
:1058A000F2038832E4F52091F203820F8093F00333
:1058B0008091C6039091C703820F911D27FD9A9591
:1058C0009093C7038093C603F0CE2D502230E0F2B0
:1058D000943009F08DC42091F103022E000C330B9B
:1058E00037FF03C03195219531092230DCF4853230
:1058F0000CF49ACF92E09093F20387320CF494CF99
:1059000091E09093F20388320CF099CF8DCF8732DB
:1059100054F2923019F2873231F2913021F610921E
:10592000F203C1CF82E79BE10E9495149091F203AC
:1059300088E2891B8093F0032091EE033091EF03FE
:10594000205F3F4F3093C5032093C403082E000C03
:10595000990B04969093C7038093C60386E08093C7
:10596000C8031092F2038091F503811103C081E016
:105970008093F5038091C3039091C203890F8093B4
:10598000C3031092C203E2ECF2E08EE09081923108
:1059900009F48083349653E0E23CF507B9F785CEED
:1059A000273031054CF40C939F5F9B01290F311D6B
:1059B0002034310509F412E31496E3E0A23CBE075B
:1059C00009F0CCCE1093F5039093C30302EC12E0E0
:1059D00032ECA32E33E0B32E48E0F42EEE24E39411
:1059E00055E0952E69E0862E7CE0372EEEE02E2ED7
:1059F0008091C203D8019C91803108F007C12FEF3C
:105A0000290F2D3008F002C18091F503811169C181
:105A10004091EE035091EF03433351050CF461C103
:105A20008091F00388320CF45CC112962D913C9168
:105A3000241B350B37FF03C03195219531092530E3
:105A400031050CF0F7C086E49BE10E94951480912B
:105A5000C2038F5F8093C20322E1F8012083829DFD
:105A6000802D112481830C5F1F4FA016B10609F011
:105A7000BFCF09EC13E0FDEEEF2EF3E0FF2ED801CF
:105A80008D919C918838B3E19B0789F1F8012381BE
:105A9000821B910927FD93952091EE033091EF032E
:105AA000AC01421B530B9A0157FF03C0319521955E
:105AB0003109273431050CF00EC2D8018D939C9327
:105AC000D80114968C9114978F3F59F012969C919F
:105AD0001297980F12969C9361E00E94EB18F801C0
